:1000000082C100000C94B70D0C948C0D0C94610D02
:100010000C94360D0C940B0D0C94E00C0C94B50C58
:100020000C948A0CA1C100009FC100009DC100007A
:100030009BC1000099C1000097C1000095C100005C
:1000400093C1000091C100008FC100008DC100006C
:100050008BC1000089C1000087C100000C94400CD6
:1000600083C100000C940A0C0C94E00B7DC10000CD
:100070007BC1000079C1000077C1000075C100009C
:1000800073C1000071C100006FC100000C94E20D4B
:100090006BC1000069C1000067C100000C940D0E27
:1000A00063C1000061C100005FC100005DC10000CC
:1000B0005BC1000059C1000057C1000055C10000DC
:1000C00053C1000051C100004FC100004DC10000EC
:1000D0004BC1000049C1000047C1000045C10000FC
:1000E00043C10000005EBCE2613FDD83C29C7E2014
:1000F000A3FD1F419DC3217FFCA2401E5F01E3BD04
:100100003E6082DC237D9FC1421CFEA0E1BF5D03F7
:1001100080DE3C62BEE0025CDF81633D7C22C09EEB
:100120001D43A1FF4618FAA427799BC584DA3866D7
:10013000E5BB5907DB856739BAE406581947A5FBC3
:100140007826C49A653BD987045AB8E6A7F91B45B7
:10015000C6987A24F8A6441A99C7257B3A6486D8AB
:100160005B05E7B98CD2306EEDB3510F4E10F2AC97
:100170002F7193CD114FADF3702ECC92D38D6F3183
:10018000B2EC0E50AFF1134DCE90722C6D33D18F77
:100190000C52B0EE326C8ED0530DEFB1F0AE4C126B
:1001A00091CF2D73CA947628ABF517490856B4EA57
:1001B0006937D58B5709EBB536688AD495CB297743
:1001C000F4AA4816E9B7550B88D6346A2B7597C937
:1001D0004A14F6A8742AC896154BA9F7B6E80A542B
:1001E000D7896B3500002100240027002A002D004C
:1001F0003000330001010000040107010A01000082
:100200002200250028002B002E00310034000201BE
:100210000000050108010B0100000A0B02090C0D8A
:100220000E080703040100000000000000000000A9
:1002300000000000000000000000000000000000BE
:10024000000000001211100000000000000000007B
:10025000000000000000000000000000000000009E
:1002600020002300260029002C002F00320000016E
:100270000000030106010901050505050705080839
:100280000808020202020A0A080804040404010120
:100290000101010101010303030303030303040735
:1002A00007070C0C0C0C0C0C0C0C020202020606CC
:1002B0000606060606060B0B0B0B0B0B0B0B0102BF
:1002C0001020200808102040102040800201020168
:1002D0000804020101020408102040808040201020
:1002E0000804020180040201804020100804020179
:1002F00008040201010204081020408001020408E1
:1003000010204080310F11241FBECFEFD1E2DEBF9D
:10031000CDBF00E00CBF13E0A0E0B2E0ECE4F6E3F8
:1003200000E00BBF02C007900D92A638B107D9F7C5
:1003300025E0A6E8B3E001C01D92A33CB207E1F7B7
:1003400011E0C3E8D1E000E006C021970109802F49
:10035000FE010E941B17C238D10780E00807A9F7E9
:100360000E94C50F0C94241B4BCE08950895AF92A4
:10037000BF92CF92DF92EF92FF920F931F93CF9392
:10038000DF936C017B018B01040F151FEB015E01F4
:10039000AE18BF08C017D10759F06991D601ED9189
:1003A000FC910190F081E02DC6011995892B79F718
:1003B000C501DF91CF911F910F91FF90EF90DF90DA
:1003C000CF90BF90AF900895FC01538D448D252FA1
:1003D00030E0842F90E0821B930B541710F0CF96DF
:1003E000089501970895FC01918D828D981761F011
:1003F000A28DAE0FBF2FB11D5D968C91928D9F5F28
:100400009F73928F90E008958FEF9FEF0895FC0106
:10041000918D828D981731F0828DE80FF11D858DB9
:1004200090E008958FEF9FEF0895FC01918D228D4C
:10043000892F90E0805C9F4F821B91098F739927D1
:10044000089585EE94E0F1DF21E0892B09F420E0A6
:10045000822F0895FC01A48DA80FB92FB11DA35AB6
:10046000BF4F2C91848D90E001968F739927848FD4
:10047000A689B7892C93A089B1898C9183708064F7
:100480008C93938D848D981306C00288F389E02D98
:1004900080818F7D80830895EF92FF920F931F9349
:1004A000CF93DF93EC0181E0888F9B8D8C8D981327
:1004B0001AC0E889F989808185FF15C09FB7F89433
:1004C000EE89FF896083E889F9898081837080647F
:1004D00080839FBF81E090E0DF91CF911F910F91CA
:1004E000FF90EF900895F62E0B8D10E00F5F1F4FD9
:1004F0000F731127E02E8C8D8E110BC00FB607FCE9
:10050000FACFE889F989808185FFF5CFCE01A2DF96
:10051000F2CFEB8DEC0FFD2FF11DE35AFF4FF08270
:100520009FB7F8940B8FEA89FB8980818062D0CFD6
:10053000CF93DF93EC01888D8823B1F0AA89BB8922
:10054000E889F9898C9185FD03C0808186FD0CC006
:100550000FB607FCF7CF8C9185FFF2CF808185FF26
:10056000EDCFCE0177DFEACFDF91CF91089580E024
:1005700090E0892B21F065DF81110E94000080E06E
:1005800090E0892B49F080E090E0892B29F00E94CF
:10059000000081110E94000080E090E0892B49F06A
:1005A00080E090E0892B29F00E94000081110E94D8
:1005B000000080E090E0892B49F080E090E0892BFA
:1005C00029F00E94000081110C94000008958150D0
:1005D000823108F05AC0E82FF0E08827ED50FD4F37
:1005E0008F4F0C941B171303170305030B030F0303
:1005F00045031A03200324032A032E03320338037E
:100600003C034503400346034A03809180008F77F3
:10061000809380000895809180008F7DF9CF809134
:100620008000877FF5CF84B58F7784BD089584B52A
:100630008F7DFBCF8091B0008F778093B0000895BD
:100640008091B0008F7DF9CF809190008F7780935B
:1006500090000895809190008F7DF9CF8091900057
:10066000877FF5CF8091A0008F778093A0000895B9
:100670008091A0008F7DF9CF8091A000877FF5CF7A
:10068000809120018F77809320010895809120012F
:100690008F7DF9CF80912001877FF5CFCF93DF93B6
:1006A000282F30E0F901E85EFD4F8491F901E25412
:1006B000FD4FD491F901E858FD4FC491CC2399F036
:1006C000811185DFEC2FF0E0EE0FFF1FE25AFD4FA6
:1006D000A591B491EC91ED2381E090E009F480E0E4
:1006E000DF91CF91089580E090E0FACF1F93CF93F0
:1006F000DF93282F30E0F901E85EFD4F8491F90186
:10070000E254FD4FD491F901E858FD4FC491CC2338
:10071000A1F0162F81115BDFEC2FF0E0EE0FFF1F31
:10072000E250FE4FA591B4918FB7F894EC9111115E
:1007300008C0D095DE23DC938FBFDF91CF911F914E
:100740000895DE2BF8CFCF93DF9390E0FC01E254C5
:10075000FD4F249188589D4FFC0184918823C9F056
:1007600090E0880F991FFC01EC51FE4FA591B491C8
:10077000FC01E250FE4FC591D49161110DC09FB7AD
:10078000F8948C91209582238C9388812823288348
:100790009FBFDF91CF910895623051F49FB7F894D5
:1007A0003C91822F809583238C93E8812E2BEFCF71
:1007B0008FB7F894EC912E2B2C938FBFEACF3FB7D5
:1007C000F8948091440490914504A0914604B0911E
:1007D000470426B5A89B05C02F3F19F00196A11D1F
:1007E000B11D3FBFBA2FA92F982F8827BC01CD017B
:1007F000620F711D811D911D42E0660F771F881FDA
:10080000991F4A95D1F708958F929F92AF92BF9208
:10081000CF92DF92EF92FF926B017C01D0DF4B0110
:100820005C01C114D104E104F104B1F0C8DF68191E
:1008300079098A099B09683E73408105910588F30F
:1008400021E0C21AD108E108F10888EE880E83E0A1
:10085000981EA11CB11CE5CFFF90EF90DF90CF90C8
:10086000BF90AF909F908F9008952FB7F8946091AC
:1008700040047091410480914204909143042FBF41
:1008800008950895089585ED8093BC008091BC0083
:1008900084FDFCCF1092510408952091D603260FB9
:1008A0003327331F21323105ECF420915104FC0130
:1008B00090E080E0243069F082E00895A091D603B2
:1008C0002191AC014A545C4FA40FB52FB11D2C935C
:1008D0000196861798F38091D603680F6093D6032C
:1008E00080E0089581E008950895E0915504809195
:1008F0005404E81730F4F0E0EA56FC4F808190E0B1
:1009000008958FEF9FEF08959091550480915404BE
:100910002FEF3FEF981748F4E92FF0E0EA56FC4F2D
:10092000208130E09F5F90935504C9010895809124
:10093000540490915504891B990B0895CF92DF922E
:10094000EF92FF920F931F93CF93DF937C01CB0124
:100950008A0120911D04222389F0EB016B01C40E52
:10096000D51ECC15DD0561F06991D701ED91FC91A3
:100970000190F081E02DC7011995F3CF642F8DDF31
:10098000C801DF91CF911F910F91FF90EF90DF9001
:10099000CF900895CF93DF931F92CDB7DEB76983D1
:1009A00020911D042223F9F020915204203258F0A6
:1009B00021E030E0FC013383228390E080E00F905F
:1009C000DF91CF91089580915304E82FF0E0E25E2B
:1009D000FB4F998190838F5F8093530480935204DF
:1009E00081E090E0ECCF61E0CE01019656DFF8CFD8
:1009F000CF93FC01C48121E020931D04C0933E04E9
:100A000010925304109252048385682B82E895E07B
:100A1000C1DF90915204913208F03FC0809151049F
:100A20008111FCCF82E08093510481E080935004D7
:100A30008FEF80931C0410921B0490931A04AEE174
:100A4000B4E0EAEFF3E080E098132FC01092F903CE
:100A50008091F903CC0FC82BC093F90380914F0408
:100A6000813039F510924F048091F9038093BB00D7
:100A70008091BC0083FDF8CF85EC8093BC00809111
:100A800051048230E1F380911C048F3F31F080915A
:100A90001C04803211F080911C04109253041092B7
:100AA000520410921D04CF9108952D9121938F5FD0
:100AB000CBCF85EEE2CF90E080E008950895CF920D
:100AC000DF92EF92FF921F93CF93DF937C01C7E0F9
:100AD000D0E010E0CC24C394D12C60E0F7018281F7
:100AE00005DE61E070E080E090E08EDEF701868157
:100AF000D5DD892B39F0C6010C2E01C0880F0A9470
:100B0000EAF7182B61E0F7018281F0DD61E070E027
:100B100080E090E079DE219700F7812FDF91CF917F
:100B20001F91FF90EF90DF90CF9008950F931F9348
:100B3000CF93DF938C0160E0FC018481D7DD61E01D
:100B400070E080E090E060DEC801B9DFC82FD0E03F
:100B5000DC2FCC27C801B3DFC82B61E0F80184810A
:100B6000C5DD60E070E080EC9FE7C2FD12C0BE0111
:100B700083E0759567958A95E1F7072E000C880B41
:100B8000990B0E94CB1520E030E040E85EE30E9424
:100B90007F16DF91CF911F910F910895C7DF26E651
:100BA00036E646EE5FE30E947F1620E030E040E04C
:100BB00052E40C94C8140895B9DF23E333E948E8FC
:100BC00053E40C94C8140895DC0180E0615038F0BF
:100BD000ED91E827F0E0EC51FF4F8491F7CF0895B5
:100BE000DC012C911196ED91FC91F8948181822B7E
:100BF00081839281322F30959323928387E090E016
:100C00000197F1F781818323818383E290E001974B
:100C1000F1F790817894EFECF0E03197F1F79223BF
:100C200081E009F480E00895FC0190810180F28167
:100C3000E02D292F209560FF14C0F8948281822333
:100C400082838181892B8183A3E2B0E01197F1F740
:100C50008281982B9283789487ED90E00197F1F749
:100C60000895F8948281822382838181892B8183F4
:100C7000AFEFB0E01197F1F78281982B92837894CF
:100C80008FE090E0EBCFDF92EF92FF920F931F93F4
:100C9000CF93DF93EC01D62EE42E08E010E0FF2482
:100CA000F39461E08D2D8F2109F460E0CE01BCDF6B
:100CB000FF0C01501109A9F7E11010C0F894E98167
:100CC000FA8191818881809589238183E981FA81E4
:100CD000928188818095892382837894DF91CF9156
:100CE0001F910F91FF90EF90DF900895EF92FF9288
:100CF0000F931F93CF93DF938C017B0140E065E559
:100D0000C2DFE70188E0E80EF11C699140E0C8010C
:100D1000BADFCE15DF05C9F7DF91CF911F910F9193
:100D2000FF90EF900895FC0190810180F281E02D09
:100D3000F8948181292F20958223818378943DE73F
:100D400043E050E0315029F1DA011197F1F7808149
:100D50008923C1F3F8948281822382838181892B44
:100D600081837894ABE7B7E01197F1F7F89481812C
:100D700082238183A3E1B1E01197F1F78081982369
:100D800081E009F080E07894E3E6F6E03197F1F74E
:100D9000089580E008958F929F92AF92BF92CF9274
:100DA000DF92EF92FF920F931F93CF93DF938C010B
:100DB000EB018091A3059091A405B5DF811102C0DC
:100DC00090E039C0B8018091A3059091A4058EDF11
:100DD00040E06EEB8091A3059091A40554DF8E0155
:100DE0005E0189E0A80EB11C8090A3059090A40537
:100DF00088E0C82ED12CF12CEE24E394C401F0DE5F
:100E00008111FE28EE0CE1E0CE1AD108B9F7F80105
:100E1000F1928F01EA15FB0539F78091A3059091B6
:100E2000A40581DF813061F668E0CE01CDDE91E07E
:100E300028852813C5CF892FDF91CF911F910F915E
:100E4000FF90EF90DF90CF90BF90AF909F908F90EA
:100E500008950F931F93CF93DF9300D000D000D05D
:100E6000CDB7DEB78C01BE016F5F7F4F94DF20E806
:100E700034EE882351F12A8130E0322F2227330FBC
:100E8000330F330F898148E0849FC0011124282B40
:100E9000392BF80180818031C1F4688570E08F8141
:100EA000AB01481B5109CA019695982F8827979541
:100EB00087950E94E6166051710953E0220F331F97
:100EC0005A95E1F72078260F371FC90129960FB6EA
:100ED000F894DEBF0FBECDBFDF91CF911F910F9170
:100EE0000895CF93DF9300D000D000D0CDB7DEB708
:100EF000FC012081203191F0BE016F5F7F4F4BDFFD
:100F0000882331F08D818F33A9F020F48F31A1F047
:100F100080E007C08F3521F08F37D1F78CE001C01A
:100F20008BE029960FB6F894DEBF0FBECDBFDF91E0
:100F3000CF9108958AE0F5CF89E0F3CF8F929F9209
:100F4000AF92BF92CF92DF92EF92FF928091A30572
:100F50009091A405E8DE40E06CEC8091A3059091AF
:100F6000A40591DE40919D0564E48091A3059091D4
:100F7000A40589DE80919F05882381F1E0919E057B
:100F8000E9508EEEC82E82E0D82EE33038F4F0E03F
:100F9000EE0FFF1FE85BFD4FC080D1808091A00560
:100FA000882329F180919D05811121C05EDC4B01D0
:100FB0005C010D2C000CEE08FF088091A3059091B8
:100FC000A4050EDE813051F050DC6C197D098E09CC
:100FD0009F09681579058A059B0578F3FF90EF90C6
:100FE000DF90CF90BF90AF909F908F900895B60103
:100FF000DD0C880B990BFF90EF90DF90CF90BF90A6
:10100000AF909F908F9000CCBF92CF92DF92EF92E3
:10101000FF920F931F93CF93DF93EC01B62EC72E51
:10102000ED84EE2081F01B861D861C8680E02396D1
:10103000EB2DFC2D9F01285F3F4F999191932E1727
:101040003F07D9F706C06FDE81110DC01B861D86D4
:101050001C86DF91CF911F910F91FF90EF90DF9051
:10106000CF90BF90089540E060EFCE010CDED12C10
:1010700001E011E0CE01B4DDF82ECE01B1DD91E04A
:10108000F9120EC0813049F5113468F2EB86E11097
:1010900002C081E08D878B81882329F281E0C7CF50
:1010A000ED2DF0E0F8120FC08B851817A0F4DE01CB
:1010B000AE0FBF1F13968C91802379F4F12C193059
:1010C00008F41C87E12EEC0FFD1F8381902F909573
:1010D000892383830AC08113F1CFFE01ED0DF11D39
:1010E0008381802B8383FF24F3946F2DCE019CDDBD
:1010F0001F5F000F11F4D39401E087E08D1508F015
:10110000B9CFC2CF0F931F93CF93DF938C01D62F0C
:10111000E091A305F091A405138615861486128626
:101120001186108617821682158214821382C0E0FF
:10113000B8018091A3059091A40566DF882329F06A
:10114000DC1749F0CF5FDC1798F780E0DF91CF9193
:101150001F910F91089567E0C80136DDF80197816E
:101160008913F0CF81E0F2CFCF92DF92EF92FF921E
:10117000CF9380918F0390919003A0919103B091B0
:1011800092030196A11DB11D80938F03909390034C
:10119000A0939103B093920380918F039091900359
:1011A000A0919103B091920320E030E0A9016091F9
:1011B0008703709188038091890390918A030E942C
:1011C000C8146B017C0120E030E0A9010E947B166D
:1011D00020E030E040E05FE387FD3AC0C701B601A0
:1011E0000E94C8140E949815C62F6093860370E071
:1011F00090E080E00E94CB159B01AC01C701B601D5
:101200000E94C714609387037093880380938903B7
:1012100090938A0360E0CC23A1F080918B0390919E
:101220008C03A0918D03B0918E030196A11DB11D79
:1012300080938B0390938C03A0938D03B0938E03C4
:1012400061E080E2CF91FF90EF90DF90CF904ECAA7
:10125000C701B6010E94C714C5CFCF93DF93EC013D
:10126000862F69834A8360E06EDA60E08A816BDAF8
:1012700061E089813BDA61E08A8138DA1882DF91A6
:10128000CF9108950F931F93CF938C01C62FB0DB9E
:101290006C2F6460C801ACDB6C2F6B7FC801A8DBCE
:1012A00083EC90E00197F1F7CF911F910F91089592
:1012B0000F931F93CF93DF938C01D62FC42F607FA2
:1012C000642BE0DF80E1D89FB00111246C2BC801B2
:1012D000DF91CF911F910F91D5CF41E0E9DF81E000
:1012E00090E00895FB0101900020E9F73197AF01EC
:1012F000461B570BDC01ED91FC910280F381E02D40
:1013000019948F929F92AF92BF92EF92FF920F9398
:101310001F93CF93DF93CDB7DEB7A1970FB6F894A5
:10132000DEBF0FBECDBF7C01FA01CB0119A2223076
:1013300008F42AE08E010F5D1F4F822E912CB12CF4
:10134000A12CBF01A50194010E94F916F901CA015F
:101350006A3004F5605DD8016E938D01232B242B38
:10136000252B79F790E080E0109719F0BD01C701B7
:10137000B9DFA1960FB6F894DEBF0FBECDBFDF91E7
:10138000CF911F910F91FF90EF90BF90AF909F90E2
:101390008F900895695CDFCFCF92DF92EF92FF923A
:1013A0000F931F93CF93DF9377FF20C06A017B01D8
:1013B000EC01E881F9810190F081E02D6DE2199551
:1013C0008C0144275527BA014C195D096E097F0924
:1013D0002AE0CE0196DF800F911FDF91CF911F9100
:1013E0000F91FF90EF90DF90CF9008952AE0DF916A
:1013F000CF911F910F91FF90EF90DF90CF9081CF11
:10140000CF93DF93BC0185EE94E06CDFEC016EE7D7
:1014100072E085EE94E066DF8C0F9D1FDF91CF9127
:101420000895CF93DF93AC01990F660B770B85EE90
:1014300094E0B2DFEC016EE772E085EE94E052DFFB
:101440008C0F9D1FDF91CF9108954F925F926F9205
:101450007F928F929F92AF92BF92CF92DF92EF9244
:10146000FF920F931F93CF936B017C01742EAC01FD
:101470009B010E94E21661E872E0811126C04601DC
:101480005701E894B7F82FEF3FEF4FE75FE7C5014B
:10149000B4010E94E21681110CC02FEF3FEF4FE71D
:1014A0005FE7C501B4010E942C1565E872E01816CB
:1014B00064F02FEF3FEF4FE75FE4C701B6010E94F2
:1014C0007B161816A4F469E872E085EE94E0CF91DB
:1014D0001F910F91FF90EF90DF90CF90BF90AF9052
:1014E0009F908F907F906F905F904F90FBCE2FEFEB
:1014F0003FEF4FE75FECC701B6010E942C1587FD57
:10150000E2CF20E030E0A901C701B6010E942C150E
:1015100010E000E087FF0AC06DE285EE94E00E94D3
:101520004C028C01F7FAF094F7F8F094C0E060E018
:1015300070E080E09FE37C1641F020E030E040E284
:1015400051E40E943015CF5FF6CFA70196010E94AB
:10155000C8142B013C010E949D154B015C012AE03F
:10156000BC01A40185EE94E0CCDE7C01E00EF11E0E
:10157000CC23C9F1C501B4010E94C9159B01AC017E
:10158000C301B2010E94C7144B015C016EE285EEFB
:1015900094E00E944C02E80EF91EC15020F120E0B8
:1015A00030E040E251E4C501B4010E947F162B01F6
:1015B0003C010E949D154B01B12CA12C2AE0B501E4
:1015C000A40185EE94E09DDEE80EF91EC501B4018C
:1015D0000E94C9159B01AC01C301B2010E94C7144E
:1015E0004B015C01DACFC701CF911F910F91FF90A2
:1015F000EF90DF90CF90BF90AF909F908F907F90B3
:101600006F905F904F9008956DCECF93C82F10923A
:10161000E1041092E2041092E3041092E404863094
:1016200011F01092E0046DE872E085EE94E0ECDFDA
:101630004C2F50E070E060E02AE085EE94E061DE3F
:1016400061E972E085EE94E0DFDF4091DE045091C5
:10165000DF04052E000C660B770B85EE94E09CDE14
:101660006EE772E085EE94E0CF913CCECF93DF93AE
:101670008091E1049091E204A091E304B091E4042C
:101680000196A11DB11D8093E1049093E204A09303
:10169000E304B093E4048091900500D8EC018091BC
:1016A0008F050E944E0390918E059F70CC0FDD1F19
:1016B000C82B24E0929FC0011124825E9D4FC80F69
:1016C000D92FD11D888180938E058073803109F0D8
:1016D00052C08091DE049091DF0401969093DF0464
:1016E0008093DE041092E00483E08FDF80914A044F
:1016F000882311F10E944E03EC018091E104909146
:10170000E204A091E304B091E404209194033091A9
:1017100095032C173D0709F43EC01092930387E010
:10172000209709F449C084E0C130D10509F444C0D0
:10173000D0939503C09394038091E1049091E204C7
:10174000A091E304B091E40489389341A105B10567
:1017500078F08091E00481110BC080919403909106
:101760009503892B29F486E050DF81E08093E00423
:10177000DF91CF910895803209F0B8CF8091DE04D7
:101780009091DF0401979093DF048093DE04109220
:10179000E00482E0AACF209193032111C9CFC13088
:1017A000D10531F6893B9B40A105B10508F4C0CFB6
:1017B00081E08093930388E028DFBACF0C94D3179D
:1017C0001F920F920FB60F9211240BB60F922F9308
:1017D0003F934F935F936F937F938F939F93AF93B9
:1017E000BF93EF93FF9385EE94E00E942A02FF914E
:1017F000EF91BF91AF919F918F917F916F915F9189
:101800004F913F912F910F900BBE0F900FBE0F90F5
:101810001F9018951F920F920FB60F9211240BB6BE
:101820000F922F938F939F93EF93FF93E091F50483
:10183000F091F6048081E091FB04F091FC0482FDBC
:101840001DC090818091FE048F5F8F732091FF04F3
:10185000821741F0E091FE04F0E0EB51FB4F958FD1
:101860008093FE04FF91EF919F918F912F910F90A4
:101870000BBE0F900FBE0F901F9018958081F2CF76
:101880001F920F920FB60F9211242F933F938F93B5
:101890009F93AF93BF938091400490914104A09196
:1018A0004204B091430430913F0423E0230F2D37CD
:1018B00058F50196A11DB11D20933F04809340046B
:1018C00090934104A0934204B09343048091440454
:1018D00090914504A0914604B09147040196A11D42
:1018E000B11D8093440490934504A0934604B093A3
:1018F0004704BF91AF919F918F913F912F910F908E
:101900000FBE0F901F90189526E8230F0296A11D79
:10191000B11DD2CF1F920F920FB60F9211240BB6AA
:101920000F922F933F934F935F936F937F938F9378
:101930009F93AF93BF93EF93FF93E0910E02F091CB
:101940000F021995FF91EF91BF91AF919F918F91E8
:101950007F916F915F914F913F912F910F900BBEAF
:101960000F900FBE0F901F9018951F920F920FB6F9
:101970000F9211240BB60F922F933F934F935F93C7
:101980006F937F938F939F93AF93BF93EF93FF9347
:10199000E0910C02F0910D021995FF91EF91BF912A
:1019A000AF919F918F917F916F915F914F913F91F7
:1019B0002F910F900BBE0F900FBE0F901F90189598
:1019C0001F920F920FB60F9211240BB60F922F9306
:1019D0003F934F935F936F937F938F939F93AF93B7
:1019E000BF93EF93FF93E0910202F09103021995E8
:1019F000FF91EF91BF91AF919F918F917F916F91E7
:101A00005F914F913F912F910F900BBE0F900FBEA2
:101A10000F901F9018951F920F920FB60F921124DE
:101A20000BB60F922F933F934F935F936F937F93D8
:101A30008F939F93AF93BF93EF93FF93E091000237
:101A4000F09101021995FF91EF91BF91AF919F9194
:101A50008F917F916F915F914F913F912F910F9057
:101A60000BBE0F900FBE0F901F9018951F920F92F4
:101A70000FB60F9211240BB60F922F933F934F93F3
:101A80005F936F937F938F939F93AF93BF93EF93E6
:101A9000FF93E0910A02F0910B021995FF91EF91EB
:101AA000BF91AF919F918F917F916F915F914F9176
:101AB0003F912F910F900BBE0F900FBE0F901F9074
:101AC00018951F920F920FB60F9211240BB60F921A
:101AD0002F933F934F935F936F937F938F939F9336
:101AE000AF93BF93EF93FF93E0910802F091090247
:101AF0001995FF91EF91BF91AF919F918F917F9138
:101B00006F915F914F913F912F910F900BBE0F906E
:101B10000FBE0F901F9018951F920F920FB60F9245
:101B200011240BB60F922F933F934F935F936F93B4
:101B30007F938F939F93AF93BF93EF93FF93E09126
:101B40000602F09107021995FF91EF91BF91AF91B5
:101B50009F918F917F916F915F914F913F912F91C5
:101B60000F900BBE0F900FBE0F901F9018951F92F5
:101B70000F920FB60F9211240BB60F922F933F9333
:101B80004F935F936F937F938F939F93AF93BF9385
:101B9000EF93FF93E0910402F09105021995FF91F4
:101BA000EF91BF91AF919F918F917F916F915F91D5
:101BB0004F913F912F910F900BBE0F900FBE0F9042
:101BC0001F9018951F920F920FB60F9211240BB60B
:101BD0000F922F933F934F935F936F937F938F93C6
:101BE0009F93AF93BF93EF93FF93E0914804F091DD
:101BF00049041995FF91EF91BF91AF919F918F91FA
:101C00007F916F915F914F913F912F910F900BBEFC
:101C10000F900FBE0F901F9018951F920F920FB646
:101C20000F9211240BB60F922F933F934F935F9314
:101C30006F937F938F939F93AF93BF93EF93FF9394
:101C40008091B900887F803609F44DC008F040C00B
:101C5000883209F4A9C028F5803109F49DC0C8F480
:101C6000882309F4FBC0883009F496C0FF91EF91F6
:101C7000BF91AF919F918F917F916F915F914F91A4
:101C80003F912F910F900BBE0F900FBE0F901F90A2
:101C90001895883109F488C0803241F780931C047C
:101CA00014C0803409F49DC040F48033B9F3883304
:101CB000E9F680931C0485ECB0C0803509F485C03A
:101CC000883509F496C0883489F60E944304CECF43
:101CD000883909F48CC038F5883729F050F48836F3
:101CE00011F0803719F683E0809351041092F803C5
:101CF00057C0883809F47BC0803919F0803809F062
:101D0000B5CF8091F803803208F071C0E091F803FC
:101D100081E08E0F8093F8038091BB00F0E0E852E1
:101D2000FC4F80833DC0803B39F0E0F4803A09F4F9
:101D300079C0883A09F09ACF84E0809351041092D8
:101D4000D7031092D603E0914D04F0914E041995FB
:101D50008091D60381110FC081E08093D603109249
:101D6000B60309C0803C09F4A6CF883C09F4A3CF90
:101D7000883B09F07BCFE091D70381E08E0F809301
:101D8000D703F0E0EA54FC4F80818093BB00909130
:101D9000D7038091D60329C08091F9038093BB00BB
:101DA00085EC8093BC0062CF90911B0480911A0453
:101DB000981758F5E0911B0481E08E0F80931B0467
:101DC000F0E0E650FC4F8081E9CFE0911B0481E018
:101DD0008E0F80931B048091BB00F0E0E650FC4F17
:101DE000808390911B0480911A049817C8F285E8AB
:101DF000D8CFE0911B0481E08E0F80931B0480916B
:101E0000BB00F0E0E650FC4F8083809150048111CC
:101E10005CCF81E080934F0484EA8093BC001092F1
:101E2000510424CF85EC8093BC0010925104809122
:101E3000F803803230F4E091F803F0E0E852FC4F10
:101E400010826091F80370E0E0914B04F0914C0433
:101E500088ED93E019951092F80308CF10921C04B6
:101E600034CFE5EEF4E01382128288EE93E0A0E036
:101E7000B0E084839583A683B78322E532E0318383
:101E8000208325EC30E03587248724EC30E0378749
:101E9000268720EC30E0318B208B21EC30E0338B37
:101EA000228B22EC30E0358B248B26EC30E0378B14
:101EB000268B118E128E138E148EE2E8F5E01382BB
:101EC000128284839583A683B78384E692E091830C
:101ED0008083E1E9F5E01382128286E792E0918344
:101EE000808387E2848380E1818782E08287138612
:101EF00043E062E08EE895E0B0D960E086E10E94C0
:101F0000A303E4EDF2E0E491A1EBB5E0EC93EEE89D
:101F1000F2E0E491F0E0EE0FFF1FE25AFD4F8591F1
:101F2000949112969C938E9311971B961C921B97DB
:101F30001D961C921D971C961C921C971A961C921B
:101F40001A9719961C92199718961C92189717961B
:101F50001C92179716961C92169715961C92159719
:101F600014961C92149713961C921397EDE9F5E0C2
:101F7000B783A68314821582108289E0818381E071
:101F800082838383138A128A0895CF93DF93CDB718
:101F9000DEB7A8970FB6F894DEBF0FBECDBF78941A
:101FA00084B5826084BD84B5816084BD85B582605E
:101FB00085BD85B5816085BD80916E00816080930F
:101FC0006E00109281008091810082608093810078
:101FD0008091810081608093810080918000816088
:101FE000809380008091B10084608093B1008091E3
:101FF000B00081608093B0008091910082608093F6
:102000009100809191008160809391008091900077
:102010008160809390008091A10082608093A100F4
:102020008091A10081608093A1008091A0008160D7
:102030008093A00080912101826080932101809192
:102040002101816080932101809120018160809332
:10205000200180917A00846080937A0080917A00D8
:10206000826080937A0080917A00816080937A0008
:1020700080917A00806880937A001092C100E0918C
:10208000F504F091F60482E08083E091F104F09190
:10209000F2041082E091F304F091F4048FEC808359
:1020A0001092FD04E091F904F091FA0486E0808337
:1020B000E091F704F091F804808180618083E091E1
:1020C000F704F091F804808188608083E091F70440
:1020D000F091F804808180688083E091F704F091AA
:1020E000F80480818F7D80831092E1041092E204D5
:1020F0001092E3041092E4041092E0041092DF04C2
:102100001092DE0482E280934A0462E08FE00E9433
:10211000A30362E082E10E94A30362E082E20E94E4
:10212000A30380E1809391001092900080E49FE1EE
:10213000909397008093960081E18093910042E113
:102140006FE08E010F5F1F4FC80187D889819A8188
:10215000AB8180938E0590938F05A093900586E3C5
:102160009BE0909349048093480481E08093710040
:102170001092550410925404109253041092520479
:10218000109251048093500410924F0461E084E156
:102190000E94760361E085E10E9476038091B90098
:1021A0008E7F8093B9008091B9008D7F8093B900B4
:1021B00088E48093B80085E48093BC0085EB91E0CF
:1021C00090934E0480934D0486EB91E090934C04E1
:1021D00080934B041092960580919B05823018F0F5
:1021E00098E0909396058093990562E370E080E013
:1021F00090E00E94040460919C0581E995E00E94B2
:10220000F80468EE73E080E090E00E94040460E36C
:1022100081E995E037D8EBE4EE2EE6E4FE2EC70127
:102220000197F1F760E381E995E02CD8C7010197A8
:10223000F1F760E381E995E025D883E592E0019725
:10224000F1F760E281E995E01DD860919605606242
:1022500040E081E995E02CD884E08093970540E048
:102260006CE081E995E024D840E061E081E995E007
:102270001FD8FBE3EF2EFFE1FF2EC7010197F1F717
:1022800082E08093980540E066E081E995E010D80F
:1022900040E062E081E995E00BD8C7010197F1F7D2
:1022A00088E080939C0560E081E995E00E94F80455
:1022B000E091A305F091A405138615861486128675
:1022C000118610861782168215821482138210924C
:1022D000A1051092A205FF24F394B8018091A305F3
:1022E0009091A4050E940408882309F45AC067E06D
:1022F000C8010E94E40598858913EFCF80919D0560
:10230000811126C08091A3059091A4050E94930697
:10231000B8018091A3059091A4050E94760640E043
:1023200064EB8091A3059091A4050E9443068091DF
:10233000A3059091A4050E94F005E82E8091A305C5
:102340009091A4050E949306E11002C0F0929D05B1
:10235000E0909E05C8010E9471078E15C0F480911F
:102360009E0580939E058091A1058F5F8093A105B6
:102370008981883231F078F4803119F0823209F0A5
:10238000ACCF8091A2058F5F8093A205A6CFC80134
:102390000E947107E6CF8B33A1F3823409F09DCF01
:1023A000F0CF67E972E085EE94E02ED96AEB72E037
:1023B00085EE94E029D92091A1052EA3422F50E06B
:1023C00070E060E085EE94E00E94CC0981EC92E040
:1023D00017D880E892E014D810929F058BEC92E019
:1023E0000FD80E9435042B0178A76FA30E949E0787
:1023F00066E5262E64E0362E1AA2C12CD12C760179
:10240000C3943AA18EA1381709F42DC162EE72E08F
:1024100085EE94E0F9D8B701A60185EE94E00E941C
:10242000CC096AEE72E085EE94E0EED86AA1CE01A6
:102430004A960E948208CE014A960E9471078A300D
:1024400009F476C0B801CE014A960E94CB068823D3
:1024500009F46EC08A8D803109F46AC09FE39D83C0
:102460008091A3059091A4050E949306BE01665E2B
:102470007F4F8091A3059091A4050E94760640E0CD
:102480006EE48091A3059091A4050E94430640E06C
:102490006B818091A3059091A4050E94430640E0C2
:1024A0006C818091A3059091A4050E9443068A8DBA
:1024B000803141F040E06D818091A3059091A405A9
:1024C0000E9443068091A3059091A4050E94930663
:1024D000BE01665E7F4F8091A3059091A4050E9486
:1024E000760640919D0568E48091A3059091A4052E
:1024F0000E94430664E170E080E090E00E940404E2
:1025000080919D05882331F06AE070E080E090E0E2
:102510000E9404048091A3059091A4050E94930653
:1025200080919E058B3008F078C0AAE0A0939E05AC
:10253000CE014A960E942907812C912C5EEFA52E90
:1025400052ECB52E8138F4EE9F0764F0BC01990F70
:10255000880B990B20D320E030E040E05CE3CFD340
:102560004B015C016DEE72E085EE94E04DD842E0E7
:10257000C501B4010E94250A60EF72E085EE94E087
:1025800043D889A11F928F9388A11F928F938F8D1B
:102590001F928F938E8D1F928F938D8D1F928F938D
:1025A0008C8D1F928F938B8D1F928F938A8D1F928C
:1025B0008F9324EF32E03F932F931F930F937CD59B
:1025C000C8010E94000A88E0FE017A96D1010190BC
:1025D0000D928A95E1F7E1E0D1011E96EC931E97EA
:1025E00018968D929D92AD92BC921B97EFA1F8A583
:1025F0001D96FC93EE931C97FFE02F0E311C2FEFDE
:10260000C21AD20AE20AF20A3AA13F5F3AA30FB60F
:10261000F894DEBF0FBECDBFF4CEBAE0B0939E05F6
:10262000B12CA12C8091A1058A151B0409F00CF492
:102630007FCF6A2DCE0142960E94820890909E051F
:10264000CE0142960E947107891540F480919E0543
:1026500080939E05EFEFAE1ABE0AE4CFCE014296FC
:102660000E947107F5CF0E9435046B0165E173E0AC
:1026700085EE94E00E94040BC601841995090E941E
:10268000110A88E090E0F3D37C018EE392E0D70159
:1026900011969C938E9384E390E013969C938E9373
:1026A000129761E00E94A30381E390E0F701958314
:1026B000848361E00E94A30382E390E0D701179630
:1026C0009C938E93169760E00E94A30361E0F7014C
:1026D00084810E947603F092CF04E092CE0410929F
:1026E000D7041092D6044EEC242E44E0342EC12C94
:1026F000D12C7601D101AD90BC90A114B104B9F1F7
:102700000E9435046AA37BA38CA39DA3D501ED9100
:10271000FC910480F581E02DC50119952B013C0148
:102720000E9435044B0161E373E085EE94E00E9462
:10273000040BB701A60185EE94E00E94CC096AE380
:1027400073E085EE94E00E94040B42E0C301B20105
:102750000E94250A6EE373E085EE94E00E94040B6C
:10276000C401EAA1FBA18E1B9F0B0E94110AF8E095
:102770002F0E311CCA94CD28CE28CF2809F0CCC00A
:1027800061E080E20E94A30360E080E20E947603A1
:1027900060E082E00E94A30384EB98E09093010242
:1027A0008093000280916A00836080936A00EC9AB3
:1027B00084E493E00E94000A2EEC222E24E0322EC4
:1027C0000E9435046B010E9435042B014B0196E5F4
:1027D000A92E94E0B92E2A143B0409F0A2C08091DE
:1027E000CE049091CF04009799F0DC01ED91FC911B
:1027F0000480F581E02D19956093D0047093D10485
:102800008093D2049093D3045092D5044092D40480
:102810008091D6049091D704009799F0DC01ED9156
:10282000FC910480F581E02D19956093D804709394
:10283000D9048093DA049093DB045092DD04409233
:10284000DC040E949E070E9435044B0168E573E09A
:1028500085EE94E00E94040B84189508A401990C5D
:10286000660B770B85EE94E00E94CC0969E673E075
:1028700085EE94E00E94040B60915E0470915F0409
:10288000809160049091610442E00E94250A6EE705
:1028900072E085EE94E00E94720988E0E6E1F2E0E1
:1028A000D80101900D928A95E1F780919905E1E0B8
:1028B000811101C0EFEFF0E0EE0FFF1FE00FF11FFD
:1028C0006081606840E081E995E00E9458096FE608
:1028D00073E081E995E00E94040B4091DE04509181
:1028E000DF04052E000C660B770B81E995E00E9452
:1028F000CC090E943504E4E6CE0ED11CC61AD70AD4
:102900001C141D04BCF5B601DD0C880B990B0E944C
:1029100004040E94B70254CFC12CD12C7601C39479
:10292000E9CEF50186858823E1F0C5010E942907DB
:102930008138F4EE9F07CCF0BC01990F880B990BFE
:102940002AD120E030E040E05CE3D9D1D5011896EF
:102950006D937D938D939C931B971D969C928E9265
:102960001C97BFE0AB0EB11C36CF60E070E08EEF7D
:1029700092ECECCF64E773E085EE94E00E94040BE8
:10298000882799278C199D090E94110AC2CF505897
:10299000BB27AA270ED075C166D130F06BD120F0CD
:1029A00031F49F3F11F41EF45BC10EF4E095E7FB98
:1029B00051C1E92F77D180F3BA17620773078407F3
:1029C000950718F071F49EF58FC10EF4E0950B2E6B
:1029D000BA2FA02D0B01B90190010C01CA01A00171
:1029E0001124FF27591B99F0593F50F4503E68F1CC
:1029F0001A16F040A22F232F342F4427585FF3CF0D
:102A0000469537952795A795F0405395C9F77EF4DD
:102A10001F16BA0B620B730B840BBAF09150A1F026
:102A2000FF0FBB1F661F771F881FC2F70EC0BA0FAC
:102A3000621F731F841F48F4879577956795B79534
:102A4000F7959E3F08F0B3CF9395880F08F099272C
:102A5000EE0F979587950895D9D008F481E00895F1
:102A60000CD00FC107D140F0FED030F021F45F3F11
:102A700019F0F0C0511139C1F3C014D198F3992362
:102A8000C9F35523B1F3951B550BBB27AA27621732
:102A90007307840738F09F5F5F4F220F331F441F77
:102AA000AA1FA9F333D00E2E3AF0E0E830D09150AF
:102AB0005040E695001CCAF729D0FE2F27D0660F9C
:102AC000771F881FBB1F261737074807AB07B0E8DB
:102AD00009F0BB0B802DBF01FF2793585F4F2AF0F1
:102AE0009E3F510568F0B6C000C15F3FECF3983ED1
:102AF000DCF3869577956795B795F7959F5FC9F74E
:102B0000880F911D9695879597F90895E1E0660FD6
:102B1000771F881FBB1F621773078407BA0720F04F
:102B2000621B730B840BBA0BEE1F88F7E0950895B8
:102B300004D06894B111D9C00895BCD088F09F57D3
:102B400090F0B92F9927B751A0F0D1F0660F771FF9
:102B5000881F991F1AF0BA95C9F712C0B13081F0D9
:102B6000C3D0B1E00895C0C0672F782F8827B85F21
:102B700039F0B93FCCF3869577956795B395D9F73A
:102B80003EF490958095709561957F4F8F4F9F4F44
:102B90000895E89409C097FB3EF490958095709550
:102BA00061957F4F8F4F9F4F9923A9F0F92F96E999
:102BB000BB279395F695879577956795B795F1110E
:102BC000F8CFFAF4BB0F11F460FF1BC06F5F7F4FAB
:102BD0008F4F9F4F16C0882311F096E911C07723BD
:102BE00021F09EE8872F762F05C0662371F096E8C6
:102BF000862F70E060E02AF09A95660F771F881F95
:102C0000DAF7880F9695879597F90895990F000838
:102C1000550FAA0BE0E8FEEF16161706E807F907AE
:102C2000C0F012161306E407F50798F0621B730B49
:102C3000840B950B39F40A2661F0232B242B252BCA
:102C400021F408950A2609F4A140A6958FEF811D6D
:102C5000811D089597F99F6780E870E060E008950E
:102C60009FEF80EC089500240A94161617061806A4
:102C70000906089500240A94121613061406050680
:102C80000895092E0394000C11F4882352F0BB0F11
:102C900040F4BF2B11F460FF04C06F5F7F4F8F4F74
:102CA0009F4F089557FD9058440F551F59F05F3FAF
:102CB00071F04795880F97FB991F61F09F3F79F05E
:102CC00087950895121613061406551FF2CF4695E0
:102CD000F1DF08C0161617061806991FF1CF869562
:102CE0007105610508940895E894BB276627772746
:102CF000CB0197F908958ADF08F48FEF08950BD080
:102D0000C0CFB1DF28F0B6DF18F0952309F0A2CFCD
:102D1000A7CF1124EACFC6DFA0F3959FD1F3950F7B
:102D200050E0551F629FF001729FBB27F00DB11D4F
:102D3000639FAA27F00DB11DAA1F649F6627B00DDF
:102D4000A11D661F829F2227B00DA11D621F739FC8
:102D5000B00DA11D621F839FA00D611D221F749FD6
:102D60003327A00D611D231F849F600D211D822F1D
:102D7000762F6A2F11249F5750408AF0E1F0882364
:102D80004AF0EE0FFF1FBB1F661F771F881F915071
:102D90005040A9F79E3F510570F05CCFA6CF5F3F32
:102DA000ECF3983EDCF3869577956795B795F795A4
:102DB000E7959F5FC1F7FE2B880F911D969587952C
:102DC00097F9089523DF880B990B089597FB072E39
:102DD00016F4009406D077FD08D035D007FC05D056
:102DE0003EF4909581959F4F0895709561957F4F22
:102DF0000895A1E21A2EAA1BBB1BFD010DC0AA1F3C
:102E0000BB1FEE1FFF1FA217B307E407F50720F053
:102E1000A21BB30BE40BF50B661F771F881F991FCE
:102E20001A9469F760957095809590959B01AC0117
:102E3000BD01CF010895EE0FFF1F881F8BBF0790C4
:102E4000F691E02D1994AA1BBB1B51E107C0AA1FE4
:102E5000BB1FA617B70710F0A61BB70B881F991F3B
:102E60005A95A9F780959095BC01CD0108950F93CF
:102E70001F93CF93DF938230910510F482E090E0AE
:102E8000E091C105F091C20530E020E0B0E0A0E0A3
:102E9000309799F42115310509F44AC0281B390BE4
:102EA00024303105D8F58A819B816115710589F13E
:102EB000FB0193838283FE0111C040815181028115
:102EC000138148175907E0F04817590799F41097EC
:102ED00061F012960C93129713961C933296CF01C1
:102EE000DF91CF911F910F9108950093C105109329
:102EF000C205F4CF2115310551F04217530738F0C0
:102F0000A901DB019A01BD01DF01F801C1CFEF0189
:102F1000F9CF9093C2058093C105CDCFFE01E20F9A
:102F2000F31F819391932250310939832883D7CF9E
:102F30002091BF053091C005232B41F4209112024E
:102F4000309113023093C0052093BF0520911002E9
:102F5000309111022115310541F42DB73EB7409152
:102F6000140250911502241B350BE091BF05F0911E
:102F7000C005E217F307A0F42E1B3F0B28173907F3
:102F800078F0AC014E5F5F4F2417350748F04E0FC5
:102F90005F1F5093C0054093BF05819391939FCFCE
:102FA000F0E0E0E09CCFCF93DF930097E9F0FC01E5
:102FB000329713821282A091C105B091C205ED0132
:102FC00030E020E01097A1F420813181820F931F1F
:102FD0002091BF053091C0052817390709F061C05D
:102FE000F093C005E093BF05DF91CF910895EA010A
:102FF000CE17DF07E8F54A815B819E014115510537
:10300000B1F7E901FB83EA8349915991C40FD51FB8
:10301000EC17FD0761F4808191810296840F951F62
:10302000E90199838883828193819B838A83F0E07D
:10303000E0E012968D919C9113970097B9F52D9130
:103040003C911197CD010296820F931F2091BF05ED
:103050003091C0052817390739F6309751F510928D
:10306000C2051092C105B093C005A093BF05BCCFA7
:10307000D383C28340815181840F951FC817D9071C
:1030800061F44E5F5F4F88819981480F591F5183CA
:1030900040838A819B81938382832115310509F0C6
:1030A000B0CFF093C205E093C1059ECFFD01DC01D6
:1030B000C0CF13821282D7CF0F931F93CF93DF938A
:1030C000CDB7DEB72E970FB6F894DEBF0FBECDBFDB
:1030D0000E891F8986E08C831A8309838FEF9FE70F
:1030E0009E838D83AE01465E5F4F688D798DCE01E4
:1030F000019611D02F813885020F131FF80110821D
:103100002E960FB6F894DEBF0FBECDBFDF91CF91E4
:103110001F910F9108952F923F924F925F926F925D
:103120007F928F929F92AF92BF92CF92DF92EF9257
:10313000FF920F931F93CF93DF9300D000D000D066
:103140001F921F92CDB7DEB77C013B018A01FC01C3
:1031500017821682838181FFD0C1CE0101965C0166
:10316000F7019381F30193FD859193FF81913F01D5
:10317000882309F449C1853239F493FD859193FF81
:1031800081913F01853221F4B70190E0CFD1E8CFA2
:10319000912C212C312CFFE1F31538F08B3211F1F9
:1031A00090F4803209F1833229F137FC3CC020EDE4
:1031B000280F2A3050F536FE20C08AE0989E200D58
:1031C0001124922E06C08D3291F0803371F76894ED
:1031D00030F8F30193FD859193FF81913F018111B7
:1031E000DACF21C0689431F8689432F8F2CF68944D
:1031F00033F8EFCF689434F8ECCFEAE02E9E200D40
:103200001124222E689435F8E4CF8E3229F436FC4E
:10321000FBC0689436F8DDCF8C3619F4689437F823
:10322000D8CF8836B1F2982F9F7D95549330D8F03F
:10323000833691F18337B1F1833509F05EC02801FF
:10324000F2E04F0E511CF801C080D180692D70E072
:1032500036FC02C06FEF7FEFC60152D14C0168947B
:1032600037F882010AC00C5F1F4FFFE3F9838824FF
:103270008394912C6501E89437F833FE2AC0522CD0
:103280008114910459F5552009F46ACFB70180E201
:1032900090E04CD15A94F7CFF801808189830E5F7A
:1032A0001F4FE5CF2801F2E04F0E511CF801C080FE
:1032B000D180692D70E036FC02C06FEF7FEFC60150
:1032C0002AD14C018201D7CFB70180E290E02ED104
:1032D0002A942814190409F0B8F7D1CFF60137FC65
:1032E000859137FE81916F01B70190E01FD1511098
:1032F0005A94F1E08F1A9108C3CF843619F08936B9
:1033000009F073C0F80137FE67C060817181828166
:1033100093810C5F1F4FF32DFF763F2E97FF09C05F
:1033200090958095709561957F4F8F4F9F4F6894D2
:1033300037F82AE030E0A50129D1C82ECA188C2C14
:10334000432C36FE0CC0E89440F8C91440F434FE17
:1033500005C032FC03C0F32DFE7E4F2E892C44FEA7
:10336000A6C0FE01EC0DF11D8081803309F098C0EC
:10337000242D297E422E842D8870582E43FCA5C012
:1033800040FE9FC09C2C821418F42C0C922C981890
:1033900044FEA1C0B70180E390E0C8D042FE08C05F
:1033A00088E790E041FE02C088E590E0B701BED01A
:1033B000C91408F49CC0CA94D12C9FEFC91AD90A29
:1033C000CA0CDB1CF60182916F01B70190E0AED010
:1033D000AC14BD04B9F757CF60817181072E000C82
:1033E000880B990B0E5F1F4F96CFD32CE894D4F81F
:1033F0002AE030E08537E1F1232D297FD22E8F3668
:10340000A9F1F0F4883551F1F701868197812B9667
:103410000FB6F894DEBF0FBECDBFDF91CF911F91E5
:103420000F91FF90EF90DF90CF90BF90AF909F9063
:103430008F907F906F905F904F903F902F90089566
:10344000803749F0883701F7D4FE02C06894D2F87B
:1034500020E130E00DC06894D4F8F6CF34FE03C00C
:10346000822F8660D82E20E132E002C028E030E0D2
:10347000F801D7FE0EC060817181828193810C5F5B
:103480001F4FA50183D0C82ECA183D2CE89437F8E9
:1034900056CF6081718190E080E00E5F1F4FF1CFC9
:1034A00042FC02C0839467CF8394839464CF842DBD
:1034B000867809F460CFF6CFB70180E290E036D08D
:1034C00083948214C8F3512C63CF522C5818821461
:1034D00008F45ECFF8CF842D867809F469CF8BE2AB
:1034E00041FE80E247FC8DE2B70190E060CFB7017A
:1034F00080E390E01BD09A945BCF8FEF9FEF87CF54
:10350000FC010590615070400110D8F780959095AE
:103510008E0F9F1F0895FC016150704001900110B3
:10352000D8F7809590958E0F9F1F08950F931F9346
:10353000CF93DF93182F092FEB018B8181FD09C0F9
:103540001FEF0FEF812F902FDF91CF911F910F91E0
:10355000089582FF14C02E813F818C819D812817A0
:1035600039073CF4E881F981CF010196998388837A
:1035700010838E819F8101969F838E83E3CFE885A0
:10358000F985812F1995892BA1F3DACFFA01AA27A2
:10359000283051F1203181F1E8946F936E7F6E5F96
:1035A0007F4F8F4F9F4FAF4FB1E03ED0B4E03CD044
:1035B000670F781F891F9A1FA11D680F791F8A1F27
:1035C000911DA11D6A0F711D811D911DA11D20D08E
:1035D00009F468943F912AE0269F11243019305D48
:1035E0003193DEF6CF010895462F4770405D419339
:1035F000B3E00FD0C9F7F6CF462F4F70405D4A3386
:1036000018F0495D31FD4052419302D0A9F7EACF4D
:10361000B4E0A6959795879577956795BA95C9F77C
:1036200000976105710508959B01AC010A2E06946F
:103630005795479537952795BA95C9F7620F731F28
:0C364000841F951FA01D0895F894FFCF73
:10364C004104410441044104410441044104410446
:10365C000000C3058000000040001400540000026C
:10366C000400030001100302000003020100060025
:10367C0004000605002006050400000000005E059D
:10368C00DE0B9605DC05CE055E00BC007701000064
:10369C0000004C02B701E40198021502F301070285
:1036AC0000000000CA049E045B05740497048404A3
:1036BC007504000000006D09B7015B0542040D0A9A
:1036CC00006E616E00696E66006F76660065763A14
:1036DC000020656E633A005363616E6E696E6720FD
:1036EC004F6E65576972652044616C6C6173207311
:1036FC00656E736F72732E2E2E00466F756E64207E
:10370C000020646576696365732E0064616C6C617E
:10371C00732072657175657374696E672074656D5D
:10372C00700053656E736F7220002E2000543D00A4
:10373C00203A200025303258253032582530325866
:10374C0025303258253032582530325825303258F1
:10375C00253032580044616C6C6173207363616E68
:10376C0020646F6E652E2074696D65206D733A2030
:10377C00004D4158363637352F0020543A002C2056
:10378C006D733A00696E69746564207468652068AD
:10379C00617264776172650073656E736F7273200A
:1037AC00726561642E20743A002C2074303A0070DB
:1037BC006F733A007A616272616BC5826F206D69BA
:0637CC00206D73200000D7
:00000001FF
