:1000000082C10000B1C10000AFC10000ADC100005D
:10001000ABC10000A9C10000A7C10000A5C100003C
:10002000A3C10000A1C100009FC100009DC100004C
:100030009BC1000099C1000097C1000095C100005C
:1000400093C1000091C100008FC100008DC100006C
:100050008BC1000089C1000087C100000C94AE0B69
:1000600083C100000C94780B0C944E0B7DC10000F2
:100070007BC1000079C1000077C1000075C100009C
:1000800073C1000071C100006FC100000C94F80B37
:100090006BC1000069C1000067C100000C94230C13
:1000A00063C1000061C100005FC100005DC10000CC
:1000B0005BC1000059C1000057C1000055C10000DC
:1000C00053C1000051C100004FC100004DC10000EC
:1000D0004BC1000049C1000047C1000045C10000FC
:1000E00043C10000005EBCE2613FDD83C29C7E2014
:1000F000A3FD1F419DC3217FFCA2401E5F01E3BD04
:100100003E6082DC237D9FC1421CFEA0E1BF5D03F7
:1001100080DE3C62BEE0025CDF81633D7C22C09EEB
:100120001D43A1FF4618FAA427799BC584DA3866D7
:10013000E5BB5907DB856739BAE406581947A5FBC3
:100140007826C49A653BD987045AB8E6A7F91B45B7
:10015000C6987A24F8A6441A99C7257B3A6486D8AB
:100160005B05E7B98CD2306EEDB3510F4E10F2AC97
:100170002F7193CD114FADF3702ECC92D38D6F3183
:10018000B2EC0E50AFF1134DCE90722C6D33D18F77
:100190000C52B0EE326C8ED0530DEFB1F0AE4C126B
:1001A00091CF2D73CA947628ABF517490856B4EA57
:1001B0006937D58B5709EBB536688AD495CB297743
:1001C000F4AA4816E9B7550B88D6346A2B7597C937
:1001D0004A14F6A8742AC896154BA9F7B6E80A542B
:1001E000D7896B3500002100240027002A002D004C
:1001F0003000330001010000040107010A01000082
:100200002200250028002B002E00310034000201BE
:100210000000050108010B0100000A0B02090C0D8A
:100220000E080703040100000000000000000000A9
:1002300000000000000000000000000000000000BE
:10024000000000001211100000000000000000007B
:10025000000000000000000000000000000000009E
:1002600020002300260029002C002F00320000016E
:100270000000030106010901050505050705080839
:100280000808020202020A0A080804040404010120
:100290000101010101010303030303030303040735
:1002A00007070C0C0C0C0C0C0C0C020202020606CC
:1002B0000606060606060B0B0B0B0B0B0B0B0102BF
:1002C0001020200808102040102040800201020168
:1002D0000804020101020408102040808040201020
:1002E0000804020180040201804020100804020179
:1002F00008040201010204081020408001020408E1
:1003000010204080470D11241FBECFEFD1E2DEBF89
:10031000CDBF00E00CBF13E0A0E0B2E0ECE2F2E3FE
:1003200000E00BBF02C007900D92A436B107D9F7C9
:1003300025E0A4E6B3E001C01D92A439B207E1F7BD
:1003400011E0C3E8D1E000E006C021970109802F49
:10035000FE010E940B15C238D10780E00807A9F7FB
:100360000E94DB0D0C9414194BCE08950895AF92A2
:10037000BF92CF92DF92EF92FF920F931F93CF9392
:10038000DF936C017B018B01040F151FEB015E01F4
:10039000AE18BF08C017D10759F06991D601ED9189
:1003A000FC910190F081E02DC6011995892B79F718
:1003B000C501DF91CF911F910F91FF90EF90DF90DA
:1003C000CF90BF90AF900895FC01538D448D252FA1
:1003D00030E0842F90E0821B930B541710F0CF96DF
:1003E000089501970895FC01918D828D981761F011
:1003F000A28DAE0FBF2FB11D5D968C91928D9F5F28
:100400009F73928F90E008958FEF9FEF0895FC0106
:10041000918D828D981731F0828DE80FF11D858DB9
:1004200090E008958FEF9FEF0895FC01918D228D4C
:10043000892F90E0805C9F4F821B91098F739927D1
:10044000089586EB94E0F1DF21E0892B09F420E0A8
:10045000822F0895FC01A48DA80FB92FB11DA35AB6
:10046000BF4F2C91848D90E001968F739927848FD4
:10047000A689B7892C93A089B1898C9183708064F7
:100480008C93938D848D981306C00288F389E02D98
:1004900080818F7D80830895EF92FF920F931F9349
:1004A000CF93DF93EC0181E0888F9B8D8C8D981327
:1004B0001AC0E889F989808185FF15C09FB7F89433
:1004C000EE89FF896083E889F9898081837080647F
:1004D00080839FBF81E090E0DF91CF911F910F91CA
:1004E000FF90EF900895F62E0B8D10E00F5F1F4FD9
:1004F0000F731127E02E8C8D8E110BC00FB607FCE9
:10050000FACFE889F989808185FFF5CFCE01A2DF96
:10051000F2CFEB8DEC0FFD2FF11DE35AFF4FF08270
:100520009FB7F8940B8FEA89FB8980818062D0CFD6
:10053000CF93DF93EC01888D8823B1F0AA89BB8922
:10054000E889F9898C9185FD03C0808186FD0CC006
:100550000FB607FCF7CF8C9185FFF2CF808185FF26
:10056000EDCFCE0177DFEACFDF91CF91089580E024
:1005700090E0892B21F065DF81110E94000080E06E
:1005800090E0892B49F080E090E0892B29F00E94CF
:10059000000081110E94000080E090E0892B49F06A
:1005A00080E090E0892B29F00E94000081110E94D8
:1005B000000080E090E0892B49F080E090E0892BFA
:1005C00029F00E94000081110C94000008958150D0
:1005D000823108F05AC0E82FF0E08827ED50FD4F37
:1005E0008F4F0C940B151303170305030B030F0315
:1005F00045031A03200324032A032E03320338037E
:100600003C034503400346034A03809180008F77F3
:10061000809380000895809180008F7DF9CF809134
:100620008000877FF5CF84B58F7784BD089584B52A
:100630008F7DFBCF8091B0008F778093B0000895BD
:100640008091B0008F7DF9CF809190008F7780935B
:1006500090000895809190008F7DF9CF8091900057
:10066000877FF5CF8091A0008F778093A0000895B9
:100670008091A0008F7DF9CF8091A000877FF5CF7A
:10068000809120018F77809320010895809120012F
:100690008F7DF9CF80912001877FF5CFCF93DF93B6
:1006A000282F30E0F901E85EFD4F8491F901E25412
:1006B000FD4FD491F901E858FD4FC491CC2399F036
:1006C000811185DFEC2FF0E0EE0FFF1FE25AFD4FA6
:1006D000A591B491EC91ED2381E090E009F480E0E4
:1006E000DF91CF91089580E090E0FACF1F93CF93F0
:1006F000DF93282F30E0F901E85EFD4F8491F90186
:10070000E254FD4FD491F901E858FD4FC491CC2338
:10071000A1F0162F81115BDFEC2FF0E0EE0FFF1F31
:10072000E250FE4FA591B4918FB7F894EC9111115E
:1007300008C0D095DE23DC938FBFDF91CF911F914E
:100740000895DE2BF8CFCF93DF9390E0FC01E254C5
:10075000FD4F249188589D4FFC0184918823C9F056
:1007600090E0880F991FFC01EC51FE4FA591B491C8
:10077000FC01E250FE4FC591D49161110DC09FB7AD
:10078000F8948C91209582238C9388812823288348
:100790009FBFDF91CF910895623051F49FB7F894D5
:1007A0003C91822F809583238C93E8812E2BEFCF71
:1007B0008FB7F894EC912E2B2C938FBFEACF3FB7D5
:1007C000F8948091150490911604A0911704B091AB
:1007D000180426B5A89B05C02F3F19F00196A11D4E
:1007E000B11D3FBFBA2FA92F982F8827BC01CD017B
:1007F000620F711D811D911D42E0660F771F881FDA
:10080000991F4A95D1F708958F929F92AF92BF9208
:10081000CF92DF92EF92FF926B017C01D0DF4B0110
:100820005C01C114D104E104F104B1F0C8DF68191E
:1008300079098A099B09683E73408105910588F30F
:1008400021E0C21AD108E108F10888EE880E83E0A1
:10085000981EA11CB11CE5CFFF90EF90DF90CF90C8
:10086000BF90AF909F908F9008952FB7F8946091AC
:1008700011047091120480911304909114042FBFFD
:100880000895089585ED8093BC008091BC0084FD9F
:10089000FCCF1092220408952091A703260F33273E
:1008A000331F21323105ECF420912204FC0190E049
:1008B00080E0243069F082E00895A091A70321919F
:1008C000AC0149575C4FA40FB52FB11D2C93019675
:1008D000861798F38091A703680F6093A70380E0C1
:1008E000089581E008950895E091260480912504FB
:1008F000E81730F4F0E0E959FC4F808190E008956A
:100900008FEF9FEF089590912604809125042FEF9B
:100910003FEF981748F4E92FF0E0E959FC4F2081A8
:1009200030E09F5F90932604C901089580912504CB
:1009300090912604891B990B0895CF92DF92EF9234
:10094000FF920F931F93CF93DF937C01CB018A011A
:100950002091EE03222389F0EB016B01C40ED51E1A
:10096000CC15DD0561F06991D701ED91FC91019005
:10097000F081E02DC7011995F3CF642F8DDFC801F9
:10098000DF91CF911F910F91FF90EF90DF90CF906B
:100990000895CF93DF931F92CDB7DEB7698320917F
:1009A000EE032223F9F020912304203258F021E0B5
:1009B00030E0FC013383228390E080E00F90DF91F0
:1009C000CF91089580912404E82FF0E0E151FC4F8D
:1009D000998190838F5F809324048093230481E026
:1009E00090E0ECCF61E0CE01019656DFF8CFCF93D7
:1009F000FC01C48121E02093EE03C0930F04109208
:100A00002404109223048385682B83E595E0C1DFDD
:100A100090912304913208F03FC08091220481110B
:100A2000FCCF82E08093220481E0809321048FEF49
:100A30008093ED031092EC039093EB03AFEEB3E0E1
:100A4000EBECF3E080E098132FC01092CA03809182
:100A5000CA03CC0FC82BC093CA03809120048130F5
:100A600039F5109220048091CA038093BB008091D5
:100A7000BC0083FDF8CF85EC8093BC0080912204FC
:100A80008230E1F38091ED038F3F31F08091ED03EF
:100A9000803211F08091ED0310922404109223040F
:100AA0001092EE03CF9108952D9121938F5FCBCFBC
:100AB00085EEE2CF90E080E008950895CF92DF9236
:100AC000EF92FF921F93CF93DF937C01C7E0D0E0BA
:100AD00010E0CC24C394D12C60E0F701828106DEC3
:100AE00061E070E080E090E08FDEF7018681D6DD86
:100AF000892B39F0C6010C2E01C0880F0A94EAF741
:100B0000182B61E0F7018281F1DD61E070E080E0A7
:100B100090E07ADE219700F7812FDF91CF911F912E
:100B2000FF90EF90DF90CF9008950F931F93CF9396
:100B3000DF938C0160E0FC018481D8DD61E070E02E
:100B400080E090E061DEC801B9DFC82FD0E0DC2F83
:100B5000CC27C801B3DFC82B61E0F8018481C6DD72
:100B600060E070E080EC9FE7C2FD12C0BE0183E050
:100B7000759567958A95E1F7072E000C880B990B00
:100B80000E94BB1320E030E040E85EE30E946F1457
:100B9000DF91CF911F910F910895C7DF26E636E6CA
:100BA00046EE5FE30E946F1420E030E040E052E444
:100BB0000C94BD120895B9DF23E333E948E853E408
:100BC0000C94BD120895DC0180E0615038F0ED9185
:100BD000E827F0E0EC51FF4F8491F7CF0895DC0156
:100BE0002C911196ED91FC91F8948181822B818357
:100BF0009281322F30959323928387E090E0019782
:100C0000F1F781818323818383E290E00197F1F7FB
:100C100090817894EFECF0E03197F1F7922381E046
:100C200009F480E00895FC0190810180F281E02DBB
:100C3000292F209560FF14C0F8948281822382833B
:100C40008181892B8183A3E2B0E01197F1F7828142
:100C5000982B9283789487ED90E00197F1F70895AF
:100C6000F8948281822382838181892B8183AFEFF3
:100C7000B0E01197F1F78281982B928378948FE0FE
:100C800090E0EBCFDF92EF92FF920F931F93CF9301
:100C9000DF93EC01D62EE42E08E010E0FF24F3945D
:100CA00061E08D2D8F2109F460E0CE01BCDFFF0CE7
:100CB00001501109A9F7E11010C0F894E981FA81F7
:100CC00091818881809589238183E981FA8192814C
:100CD00088818095892382837894DF91CF911F91B9
:100CE0000F91FF90EF90DF900895EF92FF920F9396
:100CF0001F93CF93DF938C017B0140E065E5C2DF5A
:100D0000E70188E0E80EF11C699140E0C801BADF14
:100D1000CE15DF05C9F7DF91CF911F910F91FF909D
:100D2000EF900895FC0190810180F281E02DF8940C
:100D30008181292F20958223818378943DE743E0A8
:100D400050E0315029F1DA011197F1F780818923C0
:100D5000C1F3F8948281822382838181892B8183EC
:100D60007894ABE7B7E01197F1F7F894818182238B
:100D70008183A3E1B1E01197F1F78081982381E0AD
:100D800009F080E07894E3E6F6E03197F1F7089512
:100D900080E008958F929F92AF92BF92CF92DF92A0
:100DA000EF92FF920F931F93CF93DF938C01EB0190
:100DB0008091740590917505B5DF811102C090E0B6
:100DC00039C0B80180917405909175058EDF40E0BF
:100DD0006EEB809174059091750554DF8E015E0174
:100DE00089E0A80EB11C809074059090750588E08C
:100DF000C82ED12CF12CEE24E394C401F0DE811135
:100E0000FE28EE0CE1E0CE1AD108B9F7F801F19214
:100E10008F01EA15FB0539F78091740590917505EE
:100E200081DF813061F668E0CE01CDDE91E028857A
:100E30002813C5CF892FDF91CF911F910F91FF907C
:100E4000EF90DF90CF90BF90AF909F908F900895DC
:100E50000F931F93CF93DF9300D000D000D0CDB776
:100E6000DEB78C01BE016F5F7F4F94DF20E834EE68
:100E7000882351F12A8130E0322F2227330F330F9C
:100E8000330F898148E0849FC0011124282B392B1E
:100E9000F80180818031C1F4688570E08F81AB01F9
:100EA000481B5109CA019695982F882797958795D1
:100EB0000E94D6146051710953E0220F331F5A95D6
:100EC000E1F72078260F371FC90129960FB6F8944D
:100ED000DEBF0FBECDBFDF91CF911F910F9108955F
:100EE000CF93DF9300D000D000D0CDB7DEB7FC01A8
:100EF0002081203191F0BE016F5F7F4F4BDF88234F
:100F000031F08D818F33A9F020F48F31A1F080E092
:100F100007C08F3521F08F37D1F78CE001C08BE00F
:100F200029960FB6F894DEBF0FBECDBFDF91CF91EB
:100F300008958AE0F5CF89E0F3CF8F929F92AF9228
:100F4000BF92CF92DF92EF92FF92809174059091C1
:100F50007505E8DE40E06CEC8091740590917505B4
:100F600091DE40916E0564E4809174059091750561
:100F700089DE80917005882381F1E0916F05E95049
:100F80008EEEC82E82E0D82EE33038F4F0E0EE0F7B
:100F9000FF1FE85CFD4FC080D180809171058823E0
:100FA00029F180916E05811121C05FDC4B015C014C
:100FB0000D2C000CEE08FF088091740590917505CA
:100FC0000EDE813051F051DC6C197D098E099F09CC
:100FD000681579058A059B0578F3FF90EF90DF90FF
:100FE000CF90BF90AF909F908F900895B601DD0C89
:100FF000880B990BFF90EF90DF90CF90BF90AF9050
:101000009F908F9001CCBF92CF92DF92EF92FF9290
:101010000F931F93CF93DF93EC01B62EC72EED8471
:10102000EE2081F01B861D861C8680E02396EB2D2A
:10103000FC2D9F01285F3F4F999191932E173F07F9
:10104000D9F706C06FDE81110DC01B861D861C8678
:10105000DF91CF911F910F91FF90EF90DF90CF9094
:10106000BF90089540E060EFCE010CDED12C01E08E
:1010700011E0CE01B4DDF82ECE01B1DD91E0F91220
:101080000EC0813049F5113468F2EB86E11002C0E0
:1010900081E08D878B81882329F281E0C7CFED2DF8
:1010A000F0E0F8120FC08B851817A0F4DE01AE0F28
:1010B000BF1F13968C91802379F4F12C193008F41A
:1010C0001C87E12EEC0FFD1F8381902F90958923C3
:1010D00083830AC08113F1CFFE01ED0DF11D8381E1
:1010E000802B8383FF24F3946F2DCE019CDD1F5F43
:1010F000000F11F4D39401E087E08D1508F0B9CF0B
:10110000C2CF0F931F93CF93DF938C01D62FE09123
:101110007405F0917505138615861486128611865E
:10112000108617821682158214821382C0E0B801DD
:10113000809174059091750566DF882329F0DC178E
:1011400049F0CF5FDC1798F780E0DF91CF911F91D6
:101150000F91089567E0C80136DDF8019781891382
:10116000F0CF81E0F2CFCF93DF93EC01862F69833C
:101170004A8360E0E8DA60E08A81E5DA61E089814B
:10118000B5DA61E08A81B2DA1882DF91CF910895F1
:101190000F931F93CF938C01C62F29DC6C2F6460B3
:1011A000C80125DC6C2F6B7FC80121DC83EC90E04B
:1011B0000197F1F7CF911F910F9108950F931F930E
:1011C000CF93DF938C01D62FC42F607F642BE0DF99
:1011D00080E1D89FB00111246C2BC801DF91CF9121
:1011E0001F910F91D5CF41E0E9DF81E090E00895B4
:1011F000FB0101900020E9F73197AF01461B570B27
:10120000DC01ED91FC910280F381E02D19948F9225
:101210009F92AF92BF92EF92FF920F931F93CF9343
:10122000DF93CDB7DEB7A1970FB6F894DEBF0FBE40
:10123000CDBF7C01FA01CB0119A2223008F42AE0CB
:101240008E010F5D1F4F822E912CB12CA12CBF015E
:10125000A50194010E94E914F901CA016A3004F55C
:10126000605DD8016E938D01232B242B252B79F7FC
:1012700090E080E0109719F0BD01C701B9DFA19699
:101280000FB6F894DEBF0FBECDBFDF91CF911F9197
:101290000F91FF90EF90BF90AF909F908F90089527
:1012A000695CDFCFCF92DF92EF92FF920F931F9393
:1012B000CF93DF9377FF20C06A017B01EC01E881C7
:1012C000F9810190F081E02D6DE219958C014427A0
:1012D0005527BA014C195D096E097F092AE0CE0134
:1012E00096DF800F911FDF91CF911F910F91FF909B
:1012F000EF90DF90CF9008952AE0DF91CF911F917A
:101300000F91FF90EF90DF90CF9081CFCF93DF933D
:10131000BC0186EB94E06CDFEC016EE672E086EBDC
:1013200094E066DF8C0F9D1FDF91CF9108954F925F
:101330005F926F927F928F929F92AF92BF92CF9265
:10134000DF92EF92FF920F931F93CF936B017C017B
:10135000742EAC019B010E94D21461E772E08111EE
:1013600026C046015701E894B7F82FEF3FEF4FE74B
:101370005FE7C501B4010E94D21481110CC02FEFA8
:101380003FEF4FE75FE7C501B4010E94211365E716
:1013900072E0181664F02FEF3FEF4FE75FE4C701EC
:1013A000B6010E946B141816A4F469E772E086EB8C
:1013B00094E0CF911F910F91FF90EF90DF90CF902D
:1013C000BF90AF909F908F907F906F905F904F9065
:1013D0000FCF2FEF3FEF4FE75FECC701B6010E9441
:1013E000211387FDE2CF20E030E0A901C701B6015B
:1013F0000E94211310E000E087FF09C06DE286EB38
:1014000094E04AD88C01F7FAF094F7F8F094C0E031
:1014100060E070E080E09FE37C1641F020E030E087
:1014200040E251E40E942513CF5FF6CFA701960159
:101430000E94BD122B013C010E948D134B015C01E7
:101440002AE0BC01A40186EB94E0E1DE7C01E00E21
:10145000F11ECC23C1F1C501B4010E94B9139B0157
:10146000AC01C301B2010E94BC124B015C016EE2EF
:1014700086EB94E011D8E80EF91EC15020F120E06F
:1014800030E040E251E4C501B4010E946F142B0129
:101490003C010E948D134B01B12CA12C2AE0B50117
:1014A000A40186EB94E0B3DEE80EF91EC501B40199
:1014B0000E94B9139B01AC01C301B2010E94BC128E
:1014C0004B015C01DACFC701CF911F910F91FF90C3
:1014D000EF90DF90CF90BF90AF909F908F907F90D4
:1014E0006F905F904F90089583CECF93C82F109246
:1014F000B2041092B3041092B4041092B504863072
:1015000011F01092B1046DE772E086EB94E0ECDF2D
:101510004C2F50E070E060E02AE086EB94E077DE4C
:1015200061E872E086EB94E0DFDF4091AF04509118
:10153000B004052E000C660B770B86EB94E0B2DE50
:101540006EE672E086EB94E0CF9152CECF93DF93BC
:101550008091B2049091B304A091B404B091B50409
:101560000196A11DB11D8093B2049093B304A09382
:10157000B404B093B5048091610590D8EC018091DA
:1015800060058CD890915F059F70CC0FDD1FC82B34
:1015900024E0929FC0011124825F9D4FC80FD92F74
:1015A000D11D888180935F058073803109F051C01F
:1015B0008091AF049091B00401969093B004809311
:1015C000AF041092B10483E090DF80911B04882364
:1015D00009F164D8EC018091B2049091B304A09118
:1015E000B404B091B50420916503309166032C17C3
:1015F0003D0709F43EC01092640387E0209709F488
:1016000049C084E0C130D10509F444C0D0936603D9
:10161000C09365038091B2049091B304A091B40487
:10162000B091B50489389341A105B10578F0809156
:10163000B10481110BC08091650390916603892BE1
:1016400029F486E052DF81E08093B104DF91CF91ED
:101650000895803209F0B9CF8091AF049091B00421
:1016600001979093B0048093AF041092B10482E08C
:10167000ABCF209164032111C9CFC130D10531F620
:10168000893B9B40A105B10508F4C0CF81E0809360
:10169000640388E02ADFBACF0C94C3151F920F921F
:1016A0000FB60F9211240BB60F922F933F934F93C7
:1016B0005F936F937F938F939F93AF93BF93EF93BA
:1016C000FF9386EB94E00E942A02FF91EF91BF9175
:1016D000AF919F918F917F916F915F914F913F91CA
:1016E0002F910F900BBE0F900FBE0F901F9018956B
:1016F0001F920F920FB60F9211240BB60F922F93D9
:101700008F939F93EF93FF93E091C604F091C704EA
:101710008081E091CC04F091CD0482FD1DC09081C8
:101720008091CF048F5F8F732091D004821741F096
:10173000E091CF04F0E0EA54FB4F958F8093CF0403
:10174000FF91EF919F918F912F910F900BBE0F9072
:101750000FBE0F901F9018958081F2CF1F920F92AD
:101760000FB60F9211242F933F938F939F93AF93B4
:10177000BF938091110490911204A0911304B09131
:1017800014043091100423E0230F2D3758F50196EF
:10179000A11DB11D20931004809311049093120495
:1017A000A0931304B093140480911504909116042F
:1017B000A0911704B09118040196A11DB11D80934A
:1017C000150490931604A0931704B0931804BF91C6
:1017D000AF919F918F913F912F910F900FBE0F90DE
:1017E0001F90189526E8230F0296A11DB11DD2CF98
:1017F0001F920F920FB60F9211240BB60F922F93D8
:101800003F934F935F936F937F938F939F93AF9388
:10181000BF93EF93FF93E0911904F0911A04199587
:10182000FF91EF91BF91AF919F918F917F916F91B8
:101830005F914F913F912F910F900BBE0F900FBE74
:101840000F901F9018951F920F920FB60F921124B0
:101850000BB60F922F933F934F935F936F937F93AA
:101860008F939F93AF93BF93EF93FF938091B900B2
:10187000887F803609F44DC008F040C0883209F4F2
:10188000A9C028F5803109F49DC0C8F4882309F463
:10189000FBC0883009F496C0FF91EF91BF91AF91E2
:1018A0009F918F917F916F915F914F913F912F9178
:1018B0000F900BBE0F900FBE0F901F9018958831A0
:1018C00009F488C0803241F78093ED0314C080345E
:1018D00009F49DC040F48033B9F38833E9F680936E
:1018E000ED0385ECB0C0803509F485C0883509F476
:1018F00096C0883489F60E944204CECF883909F414
:101900008CC038F5883729F050F4883611F08037CC
:1019100019F683E0809322041092C90357C08838D7
:1019200009F47BC0803919F0803809F0B5CF809177
:10193000C903803208F071C0E091C90381E08E0FC5
:101940008093C9038091BB00F0E0E755FC4F808392
:101950003DC0803B39F0E0F4803A09F479C0883A20
:1019600009F09ACF84E0809322041092A803109289
:10197000A703E0911E04F0911F0419958091A7031D
:1019800081110FC081E08093A7031092870309C0E3
:10199000803C09F4A6CF883C09F4A3CF883B09F02A
:1019A0007BCFE091A80381E08E0F8093A803F0E045
:1019B000E957FC4F80818093BB009091A8038091F0
:1019C000A70329C08091CA038093BB0085EC809354
:1019D000BC0062CF9091EC038091EB03981758F50F
:1019E000E091EC0381E08E0F8093EC03F0E0E5538F
:1019F000FC4F8081E9CFE091EC0381E08E0F809372
:101A0000EC038091BB00F0E0E553FC4F80839091A4
:101A1000EC038091EB039817C8F285E8D8CFE091EA
:101A2000EC0381E08E0F8093EC038091BB00F0E02B
:101A3000E553FC4F80838091210481115CCF81E0CC
:101A40008093200484EA8093BC001092220424CF67
:101A500085EC8093BC00109222048091C9038032EF
:101A600030F4E091C903F0E0E755FC4F108260913B
:101A7000C90370E0E0911C04F0911D0489EA93E031
:101A800019951092C90308CF1092ED0334CFE6EBFD
:101A9000F4E01382128288EE93E0A0E0B0E0848349
:101AA0009583A683B78322E432E03183208325EC3B
:101AB00030E03587248724EC30E03787268720EC18
:101AC00030E0318B208B21EC30E0338B228B22EC09
:101AD00030E0358B248B26EC30E0378B268B118E53
:101AE000128E138E148EE3E5F5E013821282848346
:101AF0009583A683B78384E592E091838083E2E6B1
:101B0000F5E01382128286E692E09183808387E279
:101B1000848380E1818782E08287138643E062E0EC
:101B20008FE595E020DB60E086E10E94A303E4ED11
:101B3000F2E0E491A2E8B5E0EC93EEE8F2E0E491A3
:101B4000F0E0EE0FFF1FE25AFD4F8591949112963F
:101B50009C938E9311971B961C921B971D961C921B
:101B60001D971C961C921C971A961C921A971996F0
:101B70001C92199718961C92189717961C921797F3
:101B800016961C92169715961C92159714961C92F1
:101B9000149713961C921397EEE6F5E0B783A6838D
:101BA00014821582108289E0818381E0828383839D
:101BB000138A128A0895CF93DF93CDB7DEB7A89723
:101BC0000FB6F894DEBF0FBECDBF789484B58260A7
:101BD00084BD84B5816084BD85B5826085BD85B5D1
:101BE000816085BD80916E00816080936E0010924F
:101BF00081008091810082608093810080918100CA
:101C0000816080938100809180008160809380005A
:101C10008091B10084608093B1008091B0008160B8
:101C20008093B000809191008260809391008091B8
:101C300091008160809391008091900081608093F9
:101C400090008091A10082608093A1008091A1000A
:101C500081608093A1008091A00081608093A000AA
:101C60008091210182608093210180912101816016
:101C700080932101809120018160809320018091D7
:101C80007A00846080937A0080917A0082608093E9
:101C90007A0080917A00816080937A0080917A0046
:101CA000806880937A001092C100E091C604F091A0
:101CB000C70482E08083E091C204F091C3041082E3
:101CC000E091C404F091C5048FEC80831092CE049F
:101CD000E091CA04F091CB0486E08083E091C804CF
:101CE000F091C904808180618083E091C804F09103
:101CF000C904808188608083E091C804F091C904A0
:101D0000808180688083E091C804F091C90480815B
:101D10008F7D80831092B2041092B3041092B404A9
:101D20001092B5041092B1041092B0041092AF0456
:101D300082E280931B0462E08FE00E94A30362E0D2
:101D400082E10E94A30362E082E20E94A30380E199
:101D5000809391001092900080E49FE1909397000F
:101D60008093960081E18093910042E16FE08E01C3
:101D70000F5F1F4FC801F7D989819A81AB8180938A
:101D80005F0590936005A093610586EA9AE09093C1
:101D90001A048093190481E0809371001092260444
:101DA000109225041092240410922304109222040D
:101DB000809321041092200461E084E10E94760364
:101DC00061E085E10E9476038091B9008E7F809367
:101DD000B9008091B9008D7F8093B90088E4809329
:101DE000B80085E48093BC0085EB91E090931F04DC
:101DF00080931E0486EB91E090931D0480931C0455
:101E00001092670580916C05823018F098E09093ED
:101E1000670580936A0562E370E080E090E00E94CD
:101E2000040460916D0582E695E00E94F70468EE77
:101E300073E080E090E00E94040460E382E695E0B5
:101E4000A7D9EBE4EE2EE6E4FE2EC7010197F1F7E9
:101E500060E382E695E09CD9C7010197F1F760E362
:101E600082E695E095D983E592E00197F1F760E28B
:101E700082E695E08DD960916705606240E082E678
:101E800095E09CD984E08093680540E06CE082E6B0
:101E900095E094D940E061E082E695E08FD9FBE3DC
:101EA000EF2EFFE1FF2EC7010197F1F782E080934B
:101EB000690540E066E082E695E080D940E062E0B6
:101EC00082E695E07BD9C7010197F1F788E080931E
:101ED0006D0560E082E695E00E94F704E0917405EC
:101EE000F091750513861586148612861186108664
:101EF0001782168215821482138210927205109234
:101F00007305FF24F394B8018091740590917505D1
:101F10007AD8882309F45AC067E0C8010E94E30513
:101F200098858913F0CF80916E05811126C080912C
:101F30007405909175050E949206B8018091740510
:101F4000909175050E94750640E064EB80917405E0
:101F5000909175050E9442068091740590917505D7
:101F60000E94EF05E82E80917405909175050E94FE
:101F70009206E11002C0F0926E05E0906F05C80174
:101F80000E9470078E15C0F480916F0580936F05D5
:101F9000809172058F5F809372058981883231F05C
:101FA00078F4803119F0823209F0ADCF8091730559
:101FB0008F5F80937305A7CFC8010E947007E6CF9B
:101FC0008B33A1F3823409F09ECFF0CF67E872E043
:101FD00086EB94E089DA6AEA72E086EB94E084DAD0
:101FE000209172052EA3422F50E070E060E086EB56
:101FF00094E058D981EB92E089D980E792E086D9C4
:10200000109270058BEB92E081D90E9435042B0170
:1020100078A76FA30E949D0767E3262E64E0362E03
:102020001AA2C12CD12C7601C3948AA19EA1891732
:1020300009F426C162ED72E086EB94E055DAB7014F
:10204000A60186EB94E02ED96AED72E086EB94E06F
:102050004BDA6AA1CE014A9654D8CE014A960E9424
:1020600070078A3009F476C0B801CE014A960E9402
:10207000CA06882309F46EC08A8D803109F46AC0CB
:10208000AFE3AD8380917405909175050E9492062F
:10209000BE01665E7F4F80917405909175050E9428
:1020A000750640E06EE480917405909175050E947C
:1020B000420640E06B8180917405909175050E9405
:1020C000420640E06C8180917405909175050E94F4
:1020D00042068A8D803141F040E06D818091740527
:1020E000909175050E944206809174059091750546
:1020F0000E949206BE01665E7F4F809174059091AA
:1021000075050E94750640916E0568E4809174051E
:10211000909175050E94420664E170E080E090E0D5
:102120000E94040480916E05882331F06AE070E01B
:1021300080E090E00E940404809174059091750500
:102140000E94920680916F058B3008F073C0BAE050
:10215000B0936F05CE014A960E942807812C912CDE
:102160005EEFA52E52ECB52E813824EE920764F076
:10217000BC01990F880B990BFED220E030E040E0C3
:102180005CE3ADD34B015C016DED72E086EB94E056
:10219000ABD942E0C501B401CAD860EE72E086EB6B
:1021A00094E0A2D989A11F928F9388A11F928F9347
:1021B0008F8D1F928F938E8D1F928F938D8D1F9277
:1021C0008F938C8D1F928F938B8D1F928F938A8DFF
:1021D0001F928F9384EE92E09F938F931F930F93A0
:1021E0005BD5C80193D888E0FE017A96D1010190B1
:1021F0000D928A95E1F721E0F1012687D1018086D1
:102200009186A286B386EFA1F8A51D96FC93EE9366
:102210001C97FFE02F0E311C2FEFC21AD20AE20AE0
:10222000F20A8AA18F5F8AA30FB6F894DEBF0FBEB1
:10223000CDBFFBCEEAE0E0936F05B12CA12C8091DD
:1022400072058A151B0409F00CF484CF6A2DCE01A7
:1022500042960E94810890906F05CE0142960E949E
:102260007007891540F480916F0580936F05FFEF2B
:10227000AF1ABF0AE4CFCE0142960E947007F5CF95
:102280000E9435046B0165E073E086EB94E02CD985
:10229000C418D508A601DD0C660B770B86EB94E01D
:1022A00001D86EE672E086EB94E00E94F80888E0C0
:1022B00090E0CDD37C018EE292E0F70191838083A0
:1022C00084E390E09383828361E00E94A30381E32F
:1022D00090E0D70115969C938E93149761E00E942D
:1022E000A30382E390E0F7019783868360E00E9476
:1022F000A30361E0D70114968C910E947603F092BB
:102300002804E09227041092300410922F0447E230
:10231000242E44E0342E812C912C5401F101E080D4
:10232000F180E114F10409F43FC00E9435046AA36E
:102330007BA38CA39DA3D701ED91FC910480F58133
:10234000E02DC70119952B013C010E9435046B015A
:1023500061E273E086EB94E0C7D8B501A40186EB97
:1023600094E00E9452096AE273E086EB94E0BCD8E4
:1023700042E0C301B2010E9497096EE273E086EB6E
:1023800094E0B2D8EAA1FBA1CE1ADF0AA601DD0CC7
:10239000660B770B86EB94E00E9452096EE672E0C2
:1023A00086EB94E00E94F808F8E02F0E311C8A9426
:1023B00089288A288B2809F0B1C084E393E00E9421
:1023C00086092FEA222E24E0322E0E9435046B016A
:1023D0000E9435042B014B0197E3A92E94E0B92EFE
:1023E0002A143B0409F09FC080912704909128048F
:1023F000009799F0DC01ED91FC910480F581E02DCE
:1024000019956093290470932A0480932B04909368
:102410002C0450922E0440922D0480912F04909110
:102420003004009799F0DC01ED91FC910480F58176
:10243000E02D199560933104709332048093330436
:102440009093340450923604409235040E949D07C4
:102450000E9435044B0167E473E086EB94E044D8B6
:1024600084189508A401990C660B770B86EB94E011
:102470000E94520968E573E086EB94E035D86091DC
:102480003F0470914004809141049091420442E0E5
:102490000E9497096EE672E086EB94E00E94F808CD
:1024A00088E0E6E0F2E0D80101900D928A95E1F72C
:1024B00080916A05E1E0811101C0EFEFF0E0EE0FDD
:1024C000FF1FE00FF11F6081606840E082E695E049
:1024D0000E94DE086EE573E082E695E005D8409143
:1024E000AF045091B004052E000C660B770B82E60A
:1024F00095E00E9452090E943504E4E6CE0ED11CFC
:10250000C61AD70A1C141D0434F4B601DD0C880B5E
:10251000990B0E9404040E94B70257CF812C912C82
:1025200054018394FBCEF50186858823E1F0C50133
:102530000E9428078138F4EE9F07CCF0BC01990F68
:10254000880B990B18D120E030E040E05CE3C7D164
:10255000D50118966D937D938D939C931B971D9633
:102560009C928E921C97BFE0AB0EB11C39CF60E0FD
:1025700070E08EEF92ECECCF5058BB27AA270ED01C
:1025800070C161D130F066D120F031F49F3F11F479
:102590001EF456C10EF4E095E7FB4CC1E92F72D151
:1025A00080F3BA17620773078407950718F071F470
:1025B0009EF58AC10EF4E0950B2EBA2FA02D0B01CB
:1025C000B90190010C01CA01A0011124FF27591B78
:1025D00099F0593F50F4503E68F11A16F040A22F7E
:1025E000232F342F4427585FF3CF469537952795EF
:1025F000A795F0405395C9F77EF41F16BA0B620BEE
:10260000730B840BBAF09150A1F0FF0FBB1F661F34
:10261000771F881FC2F70EC0BA0F621F731F841F77
:1026200048F4879577956795B795F7959E3F08F09D
:10263000B3CF9395880F08F09927EE0F979587955C
:102640000895D4D008F481E008950CD00AC102D1D5
:1026500040F0F9D030F021F45F3F19F0EBC0511198
:1026600034C1EEC00FD198F39923C9F35523B1F3C8
:10267000951B550BBB27AA2762177307840738F0F1
:102680009F5F5F4F220F331F441FAA1FA9F333D050
:102690000E2E3AF0E0E830D091505040E695001C04
:1026A000CAF729D0FE2F27D0660F771F881FBB1FC0
:1026B000261737074807AB07B0E809F0BB0B802D9A
:1026C000BF01FF2793585F4F2AF09E3F510568F0E6
:1026D000B1C0FBC05F3FECF3983EDCF38695779585
:1026E0006795B795F7959F5FC9F7880F911D9695E8
:1026F000879597F90895E1E0660F771F881FBB1F44
:10270000621773078407BA0720F0621B730B840BF0
:10271000BA0BEE1F88F7E0950895BCD088F09F575C
:1027200090F0B92F9927B751A0F0D1F0660F771F1D
:10273000881F991F1AF0BA95C9F712C0B13081F0FD
:10274000C3D0B1E00895C0C0672F782F8827B85F45
:1027500039F0B93FCCF3869577956795B395D9F75E
:102760003EF490958095709561957F4F8F4F9F4F68
:102770000895E89409C097FB3EF490958095709574
:1027800061957F4F8F4F9F4F9923A9F0F92F96E9BD
:10279000BB279395F695879577956795B795F11132
:1027A000F8CFFAF4BB0F11F460FF1BC06F5F7F4FCF
:1027B0008F4F9F4F16C0882311F096E911C07723E1
:1027C00021F09EE8872F762F05C0662371F096E8EA
:1027D000862F70E060E02AF09A95660F771F881FB9
:1027E000DAF7880F9695879597F90895990F00085D
:1027F000550FAA0BE0E8FEEF16161706E807F907D3
:10280000C0F012161306E407F50798F0621B730B6D
:10281000840B950B39F40A2661F0232B242B252BEE
:1028200021F408950A2609F4A140A6958FEF811D91
:10283000811D089597F99F6780E870E060E0089532
:102840009FEF80EC089500240A94161617061806C8
:102850000906089500240A941216130614060506A4
:102860000895092E0394000C11F4882352F0BB0F35
:1028700040F4BF2B11F460FF04C06F5F7F4F8F4F98
:102880009F4F089557FD9058440F551F59F05F3FD3
:1028900071F04795880F97FB991F61F09F3F79F082
:1028A00087950895121613061406551FF2CF469504
:1028B000F1DF08C0161617061806991FF1CF869586
:1028C0007105610508940895E894BB27662777276A
:1028D000CB0197F908958ADF08F48FEF08950BD0A4
:1028E000C0CFB1DF28F0B6DF18F0952309F0A2CFF2
:1028F000A7CF1124EACFC6DFA0F3959FD1F3950FA0
:1029000050E0551F629FF001729FBB27F00DB11D73
:10291000639FAA27F00DB11DAA1F649F6627B00D03
:10292000A11D661F829F2227B00DA11D621F739FEC
:10293000B00DA11D621F839FA00D611D221F749FFA
:102940003327A00D611D231F849F600D211D822F41
:10295000762F6A2F11249F5750408AF0E1F0882388
:102960004AF0EE0FFF1FBB1F661F771F881F915095
:102970005040A9F79E3F510570F05CCFA6CF5F3F56
:10298000ECF3983EDCF3869577956795B795F795C8
:10299000E7959F5FC1F7FE2B880F911D9695879550
:1029A00097F9089523DF880B990B089597FB072E5D
:1029B00016F4009406D077FD08D035D007FC05D07A
:1029C0003EF4909581959F4F0895709561957F4F46
:1029D0000895A1E21A2EAA1BBB1BFD010DC0AA1F60
:1029E000BB1FEE1FFF1FA217B307E407F50720F078
:1029F000A21BB30BE40BF50B661F771F881F991FF3
:102A00001A9469F760957095809590959B01AC013B
:102A1000BD01CF010895EE0FFF1F881F8BBF0790E8
:102A2000F691E02D1994AA1BBB1B51E107C0AA1F08
:102A3000BB1FA617B70710F0A61BB70B881F991F5F
:102A40005A95A9F780959095BC01CD0108950F93F3
:102A50001F93CF93DF938230910510F482E090E0D2
:102A6000E0919205F091930530E020E0B0E0A0E025
:102A7000309799F42115310509F44AC0281B390B08
:102A800024303105D8F58A819B816115710589F162
:102A9000FB0193838283FE0111C040815181028139
:102AA000138148175907E0F04817590799F4109710
:102AB00061F012960C93129713961C933296CF01E5
:102AC000DF91CF911F910F9108950093920510937C
:102AD0009305F4CF2115310551F04217530738F013
:102AE000A901DB019A01BD01DF01F801C1CFEF01AE
:102AF000F9CF9093930580939205CDCFFE01E20F1D
:102B0000F31F819391932250310939832883D7CFC2
:102B10002091900530919105232B41F420910202E0
:102B2000309103023093910520939005209100028B
:102B3000309101022115310541F42DB73EB7409186
:102B4000040250910502241B350BE0919005F09191
:102B50009105E217F307A0F42E1B3F0B2817390746
:102B600078F0AC014E5F5F4F2417350748F04E0FE9
:102B70005F1F5093910540939005819391939FCF50
:102B8000F0E0E0E09CCFCF93DF930097E9F0FC0109
:102B9000329713821282A0919205B0919305ED01B4
:102BA00030E020E01097A1F420813181820F931F43
:102BB00020919005309191052817390709F061C0DF
:102BC000F0939105E0939005DF91CF910895EA018C
:102BD000CE17DF07E8F54A815B819E01411551055B
:102BE000B1F7E901FB83EA8349915991C40FD51FDD
:102BF000EC17FD0761F4808191810296840F951F87
:102C0000E90199838883828193819B838A83F0E0A1
:102C1000E0E012968D919C9113970097B9F52D9154
:102C20003C911197CD010296820F931F2091900540
:102C3000309191052817390739F6309751F51092E0
:102C4000930510929205B0939105A0939005BCCF87
:102C5000D383C28340815181840F951FC817D90740
:102C600061F44E5F5F4F88819981480F591F5183EE
:102C700040838A819B81938382832115310509F0EA
:102C8000B0CFF0939305E09392059ECFFD01DC0158
:102C9000C0CF13821282D7CF0F931F93CF93DF93AE
:102CA000CDB7DEB72E970FB6F894DEBF0FBECDBFFF
:102CB0000E891F8986E08C831A8309838FEF9FE733
:102CC0009E838D83AE01465E5F4F688D798DCE0108
:102CD000019611D02F813885020F131FF801108241
:102CE0002E960FB6F894DEBF0FBECDBFDF91CF9109
:102CF0001F910F9108952F923F924F925F926F9282
:102D00007F928F929F92AF92BF92CF92DF92EF927B
:102D1000FF920F931F93CF93DF9300D000D000D08A
:102D20001F921F92CDB7DEB77C013B018A01FC01E7
:102D300017821682838181FFD0C1CE0101965C018A
:102D4000F7019381F30193FD859193FF81913F01F9
:102D5000882309F449C1853239F493FD859193FFA5
:102D600081913F01853221F4B70190E0CFD1E8CFC6
:102D7000912C212C312CFFE1F31538F08B3211F11D
:102D800090F4803209F1833229F137FC3CC020ED08
:102D9000280F2A3050F536FE20C08AE0989E200D7C
:102DA0001124922E06C08D3291F0803371F7689411
:102DB00030F8F30193FD859193FF81913F018111DB
:102DC000DACF21C0689431F8689432F8F2CF689471
:102DD00033F8EFCF689434F8ECCFEAE02E9E200D64
:102DE0001124222E689435F8E4CF8E3229F436FC73
:102DF000FBC0689436F8DDCF8C3619F4689437F848
:102E0000D8CF8836B1F2982F9F7D95549330D8F063
:102E1000833691F18337B1F1833509F05EC0280123
:102E2000F2E04F0E511CF801C080D180692D70E096
:102E300036FC02C06FEF7FEFC60152D14C0168949F
:102E400037F882010AC00C5F1F4FFFE3F983882423
:102E50008394912C6501E89437F833FE2AC0522CF4
:102E60008114910459F5552009F46ACFB70180E225
:102E700090E04CD15A94F7CFF801808189830E5F9E
:102E80001F4FE5CF2801F2E04F0E511CF801C08022
:102E9000D180692D70E036FC02C06FEF7FEFC60174
:102EA0002AD14C018201D7CFB70180E290E02ED128
:102EB0002A942814190409F0B8F7D1CFF60137FC89
:102EC000859137FE81916F01B70190E01FD15110BC
:102ED0005A94F1E08F1A9108C3CF843619F08936DD
:102EE00009F073C0F80137FE67C06081718182818B
:102EF00093810C5F1F4FF32DFF763F2E97FF09C084
:102F000090958095709561957F4F8F4F9F4F6894F6
:102F100037F82AE030E0A50129D1C82ECA188C2C38
:102F2000432C36FE0CC0E89440F8C91440F434FE3B
:102F300005C032FC03C0F32DFE7E4F2E892C44FECB
:102F4000A6C0FE01EC0DF11D8081803309F098C010
:102F5000242D297E422E842D8870582E43FCA5C036
:102F600040FE9FC09C2C821418F42C0C922C9818B4
:102F700044FEA1C0B70180E390E0C8D042FE08C083
:102F800088E790E041FE02C088E590E0B701BED03E
:102F9000C91408F49CC0CA94D12C9FEFC91AD90A4D
:102FA000CA0CDB1CF60182916F01B70190E0AED034
:102FB000AC14BD04B9F757CF60817181072E000CA6
:102FC000880B990B0E5F1F4F96CFD32CE894D4F843
:102FD0002AE030E08537E1F1232D297FD22E8F368C
:102FE000A9F1F0F4883551F1F701868197812B968C
:102FF0000FB6F894DEBF0FBECDBFDF91CF911F910A
:103000000F91FF90EF90DF90CF90BF90AF909F9087
:103010008F907F906F905F904F903F902F9008958A
:10302000803749F0883701F7D4FE02C06894D2F89F
:1030300020E130E00DC06894D4F8F6CF34FE03C030
:10304000822F8660D82E20E132E002C028E030E0F6
:10305000F801D7FE0EC060817181828193810C5F7F
:103060001F4FA50183D0C82ECA183D2CE89437F80D
:1030700056CF6081718190E080E00E5F1F4FF1CFED
:1030800042FC02C0839467CF8394839464CF842DE1
:10309000867809F460CFF6CFB70180E290E036D0B1
:1030A00083948214C8F3512C63CF522C5818821485
:1030B00008F45ECFF8CF842D867809F469CF8BE2CF
:1030C00041FE80E247FC8DE2B70190E060CFB7019E
:1030D00080E390E01BD09A945BCF8FEF9FEF87CF78
:1030E000FC010590615070400110D8F780959095D3
:1030F0008E0F9F1F0895FC016150704001900110D8
:10310000D8F7809590958E0F9F1F08950F931F936A
:10311000CF93DF93182F092FEB018B8181FD09C01D
:103120001FEF0FEF812F902FDF91CF911F910F9104
:10313000089582FF14C02E813F818C819D812817C4
:1031400039073CF4E881F981CF010196998388839E
:1031500010838E819F8101969F838E83E3CFE885C4
:10316000F985812F1995892BA1F3DACFFA01AA27C6
:10317000283051F1203181F1E8946F936E7F6E5FBA
:103180007F4F8F4F9F4FAF4FB1E03ED0B4E03CD068
:10319000670F781F891F9A1FA11D680F791F8A1F4B
:1031A000911DA11D6A0F711D811D911DA11D20D0B2
:1031B00009F468943F912AE0269F11243019305D6C
:1031C0003193DEF6CF010895462F4770405D41935D
:1031D000B3E00FD0C9F7F6CF462F4F70405D4A33AA
:1031E00018F0495D31FD4052419302D0A9F7EACF72
:1031F000B4E0A6959795879577956795BA95C9F7A1
:1032000000976105710508959B01AC010A2E069493
:103210005795479537952795BA95C9F7620F731F4C
:0C322000841F951FA01D0895F894FFCF97
:10322C0000009405800000004000140054000002CF
:10323C000400030001100302000003020100060059
:10324C0004000605002006050400000000005D05D2
:10325C004C0B9505DB05CD055E00BC00770100002D
:10326C0000004C02B701E40198021502F3010702B9
:10327C0000000000C9049D045A05730496048304DD
:10328C00740400000000F308B7015A0541040D0A4C
:10329C00006E616E00696E66006F76660065763A48
:1032AC000020656E633A005363616E6E696E672031
:1032BC004F6E65576972652044616C6C6173207345
:1032CC00656E736F72732E2E2E00466F756E6420B2
:1032DC000020646576696365732E0064616C6C61B3
:1032EC00732072657175657374696E672074656D92
:1032FC00700053656E736F7220002E2000543D00D9
:10330C00203A20002530325825303258253032589A
:10331C002530325825303258253032582530325825
:10332C00253032580044616C6C6173207363616E9C
:10333C0020646F6E652E2074696D65206D733A2064
:10334C00004D4158363637352F0020543A002C208A
:10335C006D733A00696E69746564207468652065E4
:10336C006E636F6465720073656E736F7273207237
:10337C006561642E20743A002C2074303A00706F12
:04338C00733A000090
:00000001FF
