:10000000ECC300000C94D54C0C94AA4C0C947F4C7F
:100010000C94544C0C94294C0C94FE4B0C94D34BE4
:100020000C94A84B0BC4000009C4000007C40000D6
:1000300005C4000003C4000001C40000FFC30000A9
:10004000FDC30000FBC30000F9C30000F7C30000BC
:10005000F5C30000F3C30000F1C300000C945E4B35
:10006000EDC300000C94284B0C94FE4AE7C300003B
:10007000E5C30000E3C30000E1C30000DFC30000EC
:10008000DDC30000DBC30000D9C300000C94004DA9
:10009000D5C30000D3C30000D1C300000C942B4D86
:1000A000CDC30000CBC30000C9C30000C7C300001C
:1000B000C5C30000C3C30000C1C30000BFC300002C
:1000C000BDC30000BBC30000B9C30000B7C300003C
:1000D000B5C30000B3C30000B1C30000AFC300004C
:1000E000ADC300004E414E494E495459494E46CD8C
:1000F000CCCC3D0AD7233C17B7D13877CC2B3295DF
:1001000095E6241FB14F0A000020410000C84200BC
:10011000401C4620BCBE4CCA1B0E5AAEC59D740086
:10012000407A10F35A00A0724E18090010A5D4E8C6
:100130000000E87648170000E40B54020000CA9A59
:100140003B000000E1F505000080969800000040AB
:10015000420F000000A086010000001027000000F0
:1001600000E803000000006400000000000A000036
:100170000000000100000000002C76D888DC674FEA
:100180000823DFC1DFAE59E1B1B796E5E3E453C61A
:100190003AE651997696E8E6C28426EB898C9B6212
:1001A000ED407C6FFCEFBC9C9F40F2BAA56FA5F4BC
:1001B00090055A2AF75C936B6CF9676DC11BFCE0E4
:1001C000E40D47FEF520E6B500D0ED902E03009437
:1001D0003577050080841E080000204E0A000000CC
:1001E000C80C333333330F986E12831141EF8D21D6
:1001F00014893BE65516CFFEE6DB18D1844B381B3D
:10020000F77C1D901DA4BBE424203284725E228101
:1002100000C9F124ECA1E53D2746656564207374AF
:100220006F702E2072756E2074696D65206D73205D
:10023000004275726E20696E69742C206379636C5C
:10024000653A20002C2065787472612074696D65B0
:1002500020733A007265643A206379636C65207399
:10026000686F756C6420656E6420696E200072652D
:1002700064756374696F6E2073686F756C64206554
:100280006E64206279206E6F773A0052656D616905
:100290006E696E672074696D6520666F7220726585
:1002A00064756374696F6E20286D73293A00206548
:1002B0006E633A0020763A002053743A0065763A2D
:1002C000002C2076200075692073746174653A00F3
:1002D0007569207374617465206E6F7420666F7524
:1002E0006E643A20007873617665207661723A0018
:1002F00061646A207661723A0061646A62207661A4
:10030000723A00736176652074696D6500636C7282
:10031000206C6F67730073642066696C652065727A
:10032000726F722000005EBCE2613FDD83C29C7E82
:1003300020A3FD1F419DC3217FFCA2401E5F01E35E
:10034000BD3E6082DC237D9FC1421CFEA0E1BF5DFB
:100350000380DE3C62BEE0025CDF81633D7C22C044
:100360009E1D43A1FF4618FAA427799BC584DA385D
:1003700066E5BB5907DB856739BAE406581947A516
:10038000FB7826C49A653BD987045AB8E6A7F91BBF
:1003900045C6987A24F8A6441A99C7257B3A6486FC
:1003A000D85B05E7B98CD2306EEDB3510F4E10F229
:1003B000AC2F7193CD114FADF3702ECC92D38D6FC6
:1003C00031B2EC0E50AFF1134DCE90722C6D33D193
:1003D0008F0C52B0EE326C8ED0530DEFB1F0AE4CAC
:1003E0001291CF2D73CA947628ABF517490856B4ED
:1003F000EA6937D58B5709EBB536688AD495CB298E
:1004000077F4AA4816E9B7550B88D6346A2B759746
:10041000C94A14F6A8742AC896154BA9F7B6E80A73
:1004200054D7896B357C3C3E5E2B3D3F2F5B5D3B5B
:100430002C2A225C0000002100240027002A002D25
:10044000003000330001010000040107010A01002F
:10045000000A0B02090C0D0E08070304010000003E
:10046000000000000000000000000000000000008C
:100470000000000000000000000000121110000049
:10048000000000000000000000000000000000006C
:10049000000000000044616C6C6173207363616E46
:1004A00020646F6E652E2074696D65206D733A202F
:1004B0000053656E736F7220005363616E6E696ED8
:1004C00067204F6E65576972652044616C6C61737B
:1004D0002073656E736F727320666F756E64200093
:1004E0005344207772697465206F6B005465737490
:1004F0002066696C65206E6F74206578697374730B
:100500002100746573742066696C65206661696C8E
:10051000005344206F6B00202D206661696C656478
:10052000005374617274696E672053442E2E002E3E
:10053000206C6F61646564206D64617920002063C4
:100540006C656172656420656E7472792000207339
:10055000746F7265642061740020642E656E74721D
:100560006965733A004C6F6767696E6720696E69E9
:10057000742E20636F6E66696720656E747269659C
:10058000733A00637A756A6E696B200044616C6C23
:1005900061732073656E736F7220646973636F6E2D
:1005A0006E6563746564200048656174206E6565DE
:1005B0006473206368616E6765643A004357552031
:1005C0007265616479202D2061646A757374656455
:1005D000207461726765742074656D7020746F207B
:1005E000004357552068656174202D2061646A7549
:1005F00073746564207461726765742074656D70CE
:1006000020746F2000436F6F6C20737461727400EC
:10061000436F6F6C20726573756D6500436F6F6C0F
:100620002070617573650042533A207472616E7375
:100630002000696E76616C6964206275726E207349
:1006400074002C206C617374543A002C2064546C38
:10065000333A002C20645436303A002C206E656505
:10066000643A002C2074706965633A002C2074731E
:1006700070616C696E3A002C206274696D653A0095
:100680002C207374696D653A002C206377753A00ED
:100690002C20636F3A00292C2070643A0020280037
:1006A0002C20646D3A00733A0021206C6F6720653E
:1006B0006E74727920636865636B206661696C2073
:1006C00021002C70303D002C70323D002C70313DEB
:1006D000002C666565643D006C6F6720736176650C
:1006E000642000212077726F6E67206D6461793A13
:1006F000005661726961626C65206E6F7420666F6E
:10070000756E643A007A616272616B6C6F206D691C
:10071000206D73200000002200250028002B002EF1
:10072000003100340002010000050108010B010046
:100730000020002300260029002C002F003200009A
:10074000010000030106010901050505050705086B
:10075000080808020202020A0A0808040404040144
:100760000101010101010103030303030303030466
:100770000707070C0C0C0C0C0C0C0C0202020206F6
:10078000060606060606060B0B0B0B0B0B0B0B01E6
:100790000210202008081020401020408002010292
:1007A000010804020101020408102040808040205A
:1007B0001008040201800402018040201008040295
:1007C0000108040201010204081020408001020413
:1007D0000810204080004F4EA56311241FBECFEFAC
:1007E000D1E2DEBFCDBF00E00CBF10E1A0E0B2E07F
:1007F000E2E5FFED00E00BBF02C007900D92A43AC6
:10080000B107D9F727E1A4EAB0E101C01D92AB3EE0
:10081000B207E1F713E0CCEED3E000E006C0219789
:100820000109802FFE010E94696ACB3ED10780E05A
:100830000807A9F70E9494500C94986FE1CBFC0133
:10084000209183173091841796E0929FA001939F87
:10085000500D1124A0917D17B0917E17A40FB51FE4
:1008600001900D929A95E1F7E0917F17F091801732
:10087000C9010196BF010E94426A90938417809338
:10088000831720918117309182178217930741F4C3
:100890000196BF010E94426A90938217809381174C
:1008A0000895982F20914A1581E0213208F043C025
:1008B000809126158111FCCF8091491532E030934B
:1008C0002615909325159FEF9093241510922315CC
:1008D00020932215A9E2B5E1E2E0F5E190E02913C9
:1008E00031C01092011590910115880F892B8093CA
:1008F000011580910015813049F510920015809105
:1009000001158093BB008091BC0083FDF8CF85EC7E
:100910008093BC00809126158230E1F380912415EC
:100920008F3FB1F0809124158032A1F08091241581
:10093000803391F084E01092281510924A1510929D
:10094000271508953D9131939F5FC9CF85EEE0CF84
:1009500080E0F1CF82E0EFCF83E0EDCF08950895FE
:10096000FC01818D928D08950895DC01ED91FC913B
:100970000190F081E02D1994AF92BF92CF92DF9257
:10098000EF92FF920F931F93CF93DF936C017B0144
:100990008B01040F151FEB015E01AE18BF08C017D5
:1009A000D10759F06991D601ED91FC910190F08148
:1009B000E02DC6011995892B79F7C501DF91CF91FB
:1009C0001F910F91FF90EF90DF90CF90BF90AF906D
:1009D0000895FC01538D448D252F30E0842F90E045
:1009E000821B930B541710F0CF960895019708952A
:1009F000FC01918D828D981761F0A28DAE0FBF2FF3
:100A0000B11D5D968C91928D9F5F9F73928F90E048
:100A100008958FEF9FEF0895FC01918D828D9817B7
:100A200031F0828DE80FF11D858D90E008958FEFF4
:100A30009FEF0895FC01918D228D892F90E0805CBD
:100A40009F4F821B91098F73992708958BE495E13D
:100A5000F1DF21E0892B09F420E0822F0895FC01C9
:100A6000A48DA80FB92FB11DA35ABF4F2C91848D0F
:100A700090E001968F739927848FA689B7892C936C
:100A8000A089B1898C91837080648C93938D848DBF
:100A9000981306C00288F389E02D80818F7D8083C2
:100AA0000895EF92FF920F931F93CF93DF93EC0182
:100AB00081E0888F9B8D8C8D98131AC0E889F98905
:100AC000808185FF15C09FB7F894EE89FF89608308
:100AD000E889F98980818370806480839FBF81E089
:100AE00090E0DF91CF911F910F91FF90EF900895CB
:100AF000F62E0B8D10E00F5F1F4F0F731127E02EA6
:100B00008C8D8E110BC00FB607FCFACFE889F989DE
:100B1000808185FFF5CFCE01A2DFF2CFEB8DEC0F08
:100B2000FD2FF11DE35AFF4FF0829FB7F8940B8F12
:100B3000EA89FB8980818062D0CFEF92FF920F9388
:100B40001F93CF93DF938C017B01D0E0C0E0F701CE
:100B5000EC0FFD1F6491662331F0C801A2DF892BE1
:100B600011F02196F4CFCE01DF91CF911F910F911B
:100B7000FF90EF900895CF93DF93EC01888D882349
:100B8000B1F0AA89BB89E889F9898C9185FD03C0F8
:100B9000808186FD0CC00FB607FCF7CF8C9185FFD6
:100BA000F2CF808185FFEDCFCE0159DFEACFDF9113
:100BB000CF91089580E090E0892B21F047DF8111EB
:100BC0000E94000080E090E0892B49F080E090E0F6
:100BD000892B29F00E94000081110E94000080E012
:100BE00090E0892B49F080E090E0892B29F00E9469
:100BF000000081110E94000080E090E0892B49F004
:100C000080E090E0892B29F00E94000081110C9473
:100C1000000008958150823108F05AC0E82FF0E0BA
:100C20008827EA5EF94F8F4F0C94696A36063A06B8
:100C300028062E06320668063D06430647064D0680
:100C4000510655065B065F066806630669066D0673
:100C5000809180008F77809380000895809180003C
:100C60008F7DF9CF80918000877FF5CF84B58F7716
:100C700084BD089584B58F7DFBCF8091B0008F77C0
:100C80008093B00008958091B0008F7DF9CF80915E
:100C900090008F77809390000895809190008F7DD1
:100CA000F9CF80919000877FF5CF8091A0008F775A
:100CB0008093A00008958091A0008F7DF9CF80914E
:100CC000A000877FF5CF809120018F77809320014E
:100CD0000895809120018F7DF9CF80912001877F39
:100CE000F5CFCF93DF93282F30E0F901E15BFB4F85
:100CF0008491F901E157F84FD491F901E75BF84F7E
:100D0000C491CC2399F0811185DFEC2FF0E0EE0F38
:100D1000FF1FE15DF84FA591B491EC91ED2381E0C7
:100D200090E009F480E0DF91CF91089580E090E0B9
:100D3000FACF1F93CF93DF93282F30E0F901E15BC7
:100D4000FB4F8491F901E157F84FD491F901E75B2A
:100D5000F84FC491CC23A1F0162F81115BDFEC2F4B
:100D6000F0E0EE0FFF1FEB5EF84FA591B4918FB747
:100D7000F894EC91111108C0D095DE23DC938FBF5D
:100D8000DF91CF911F910895DE2BF8CF1092DF14E1
:100D90001092DE141092281510924A151092261502
:100DA00081E0809325151092001561E084E1C1DF98
:100DB00061E085E1BEDFE9EBF0E080818E7F80833A
:100DC00080818D7F808388E48093B80085E4809360
:100DD000BC008EEA94E090939612809395128FEA6D
:100DE00094E090939412809393120895CF93DF939D
:100DF00090E0FC01E157F84F2491875B984FFC018C
:100E000084918823C9F090E0880F991FFC01EB5C66
:100E1000FB4FA591B491FC01EB5EF84FC591D491C5
:100E200061110DC09FB7F8948C91209582238C930B
:100E30008881282328839FBFDF91CF910895623056
:100E400051F49FB7F8943C91822F809583238C9323
:100E5000E8812E2BEFCF8FB7F894EC912E2B2C93AB
:100E60008FBFEACFCF93DF93EC018FE0898382E1DC
:100E70008A8360E08FE0BADF60E08A81B7DF61E0FB
:100E8000898157DF61E08A8154DF1882DF91CF9139
:100E900008953FB7F89480912A1190912B11A09159
:100EA0002C11B0912D1126B5A89B05C02F3F19F02C
:100EB0000196A11DB11D3FBFBA2FA92F982F8827DA
:100EC000BC01CD01620F711D811D911D42E0660FB5
:100ED000771F881F991F4A95D1F708958F929F9287
:100EE000AF92BF92CF92DF92EF92FF926B017C01A3
:100EF000D0DF4B015C01C114D104E104F104B1F075
:100F0000C8DF681979098A099B09683E7340810521
:100F1000910588F321E0C21AD108E108F10888EEB2
:100F2000880E83E0981EA11CB11CE5CFFF90EF90C6
:100F3000DF90CF90BF90AF909F908F9008952FB784
:100F4000F894609126117091271180912811909149
:100F500029112FBF08950895FC0120812EBD9B010A
:100F60002150310941F051810DB407FEFDCF4EB53E
:100F70005EBD4193F5CF61507109860F971F0DB487
:100F800007FEFDCF2EB5FC0120830895E091D91412
:100F9000F091DA1480819091D814892B8083089580
:100FA000E091D914F091DA1490818091D814809551
:100FB00089238083089590E02091DB14233339F452
:100FC0000C96982F990F990F990F80E008954896E5
:100FD000F8CFCF93DF931F92CDB7DEB76983DC01E3
:100FE000ED91FC910280F381E02D41E050E0BE01E3
:100FF0006F5F7F4F19950F90DF91CF910895CF9339
:10100000DF931F92CDB7DEB76983DC01ED91FC91D0
:101010000280F381E02D41E050E0BE016F5F7F4F21
:1010200019950F90DF91CF910895FC019485FB01F4
:101030008485981303C081E0983008F080E008951B
:10104000CF93DF931F92CDB7DEB76983DC01ED91BB
:10105000FC910280F381E02D41E050E0BE016F5F22
:101060007F4F19950F90DF91CF910895FC017687FE
:1010700065870895DC01ED91FC91068CF78DE02DDC
:10108000199591E089270895862F089581E0862794
:10109000089521E0FC018485883008F020E0822F4B
:1010A0000895FC01848595850895FC0184899589BE
:1010B00008952DEA3AE0FC0131832083FB01408949
:1010C000518962897389FC014283538364837583E8
:1010D0000895DC01ED91FC91048CF58DE02D1994BF
:1010E000089561E0FC01848124DE80911F1181114B
:1010F00010921F1108958EBD00000DB407FEFDCFA4
:101100008EB50895AF92BF92CF92DF92EF92FF9289
:101110000F931F93CF93DF9300D000D01F921F92A5
:10112000CDB7DEB78C017B016A018091DB1483337C
:10113000B1F45801A40EB51EA016B10609F463C09F
:101140002FDF80EFD8DF812FD6DF802FD4DF0F5F36
:101150001F4FF70181917F01CEDF18DFEDCF5B01DB
:10116000A40EB51E8433A9F41BDF19830A838D2DC9
:1011700080688B83CC8264E070E0CE010196ECDE67
:10118000AE14BF0409F43EC0F70181917F01B3DFC3
:10119000F7CF06DF0F3F110509F028F419820A8303
:1011A00084E08B830CC017FD17C019820A8333E0DB
:1011B000169507953A95E1F7007E0C600B8386E063
:1011C000C816D10490F5F701DE011496EA15FB0567
:1011D00099F081918D93FACFC80126E09695879575
:1011E0002A95E1F7807E19830A830115104C10F4CB
:1011F0008461D7CF8C61D5CFB6016D5F7F4FCE01B3
:101200000196AADEC3DEC60128960FB6F894DEBFAB
:101210000FBECDBFDF91CF911F910F91FF90EF9047
:10122000DF90CF90BF90AF90089563E070E0CE0163
:10123000019692DEF70181917F015DDFAE14BF045C
:10124000C9F7E0CFCF93DF931F92CDB7DEB7898385
:1012500041E050E0BE016F5F7F4F90E080E052DFE1
:101260000F90DF91CF910895DA01E091DC14F0E066
:10127000FE2FEE27E60FF71F90E0982F8827A90191
:10128000BD018E0F9F1F3ECFCF93DF931F921F9202
:10129000CDB7DEB779836A8322E030E0AE014F5FDD
:1012A0005F4F60E170E0E0DF0F900F90DF91CF9132
:1012B0000895CF93DF931F921F92CDB7DEB7798346
:1012C0006A8322E030E0AE014F5F5F4F64E070E080
:1012D000CBDF0F900F90DF91CF910895CF93DF93E5
:1012E0001F92CDB7DEB72091DC1430E0322F2227D9
:1012F000260F371F90E0982F8827498341E050E060
:10130000BE016F5F7F4F820F931FFCDE0F90DF9156
:10131000CF9108958FEFEFCE0F931F93CF93DF936D
:10132000EC010DDE8B01F6DF8F3F61F008DE601B04
:10133000710B6C177D07B8F380E0DF91CF911F919F
:101340000F91089581E0F9CF8CBD9DBD0895FF9266
:101350000F931F93CF93DF93EB01FC01178A168A3B
:101360002A81211109C02B81211106C02C81211154
:1013700003C02D812223E9F041155105D1F08A01E6
:10138000FC01F08C80E591E0DFDFAE014E5F5F4F46
:1013900024E030E06CE070E08F2D66DFB8018F2D27
:1013A00073DF81E090E0DF91CF911F910F91FF906B
:1013B000089580E0F7CFCF93DF93EC0180911F1168
:1013C000811108C081E080931F1180911E169091B9
:1013D0001F16BADF60E08C81DF91CF91AACC8F928B
:1013E0009F92AF92BF92FF920F931F93CF93DF9381
:1013F000EC01F62E49015A018E81882379F08F8104
:1014000098859C012F5F3F4F38872F838230924011
:1014100010F480DFF4CFCE0164DE1E82CE01CBDF7C
:101420008CE291E079DF8F2D806465DE08E110E0C9
:10143000D501C401002E04C0B695A7959795879550
:101440000A94D2F758DE08501109083F8FEF1807A9
:1014500079F785E9FF2021F028E087E8F2128FEF85
:101460004ADE10E057DF8A8787FF04C01F3F11F074
:101470001F5FF8CFDF91CF911F910F91FF90BF9029
:10148000AF909F908F900895AF92BF92CF92DF92CE
:10149000EF92FF920F931F93CF93DF93EC016901BB
:1014A000C801820F931F8130924048F58E818823B6
:1014B00079F088819981AA81BB8184179507A60755
:1014C000B70731F48F819885C816D90608F03CC05B
:1014D000488359836A837B838B85833039F089E025
:1014E000440F551F661F771F8A95D1F79A01AB01EC
:1014F00061E1CE0174DF882381F083E08D83CE012A
:10150000F0DD80E0DF91CF911F910F91FF90EF9080
:10151000DF90CF90BF90AF90089511DD5B01FADEB0
:101520008A878F3F59F40BDD6A197B096D32714050
:10153000B0F38FE08D83CE01D4DDE1CF8E3F81F417
:1015400018861F8281E08E838F8198858C159D057A
:1015500048F4E0DE8F819885019698878F83F4CFD9
:101560008DE0E8CF6701E00EF11ED4DEF601819335
:101570006F01EE15FF05C9F78F819885080F191FB8
:1015800018870F838985882319F00115124090F080
:101590008E81882379F08F8198859C012F5F3F4F42
:1015A00038872F838230924010F4B4DEF4CFCE011E
:1015B00098DD1E8281E0A6CFEF92FF920F931F93DA
:1015C000CF93DF93EC01790182E14115510561056B
:1015D000710591F08B85833039F089E0440F551FF8
:1015E000661F771F8A95D1F79A01AB0168E1CE019A
:1015F000F6DE882319F084E08D8328C08EEF7BDD32
:1016000087018EEFF81AF80181918F0174DD0E15B4
:101610001F05C9F78FEF6FDD8FEF6DDD7BDE8A87EA
:101620008F71853079F488E592E076DE882391F039
:1016300020E030E0A9016DE0CE01D1DE882361F029
:1016400084E1DACF81E18D83CE014BDDCE0149DD2E
:1016500080E008C085E1D0CF5DDE8111F1CFCE0101
:1016600040DD81E0DF91CF911F910F91FF90EF90CE
:101670000895CF93DF9380912011882399F1C09131
:10168000D614D091D714409118025091190260914C
:101690001A0270911B0226ED32E1CE018DDF81111D
:1016A00004C080E0DF91CF910895409121115091C5
:1016B000221160912311709124114115510561058A
:1016C000710571F026ED32E1CE0176DF882349F312
:1016D00010922111109222111092231110922411B4
:1016E0001092201181E0DECF8F929F92AF92BF9235
:1016F000EF92FF920F931F93CF934B015C01C42F86
:101700008091180290911902A0911A02B0911B02C7
:1017100088159905AA05BB0539F1ABDF81110BC00E
:1017200080E0CF911F910F91FF90EF90BF90AF900D
:101730009F908F90089586EDE82E82E1F82E00E0CC
:1017400012E030E020E0B501A4018091D614909120
:10175000D7149ADE882321F38092180290921902FE
:10176000A0921A02B0921B02409120114C2B409380
:10177000201181E0D6CF8F929F92AF92BF92CF92ED
:10178000DF92EF92FF92CF9320E236E13093D714AD
:101790002093D614882309F46BC040E060E070E029
:1017A000CB01A2DF81110BC080E0CF91FF90EF90C1
:1017B000DF90CF90BF90AF909F908F9008958091D1
:1017C00094148F7789F78091A0149091A114A0911F
:1017D000A214B091A31484369105A105B10520F39C
:1017E000C0909C14D0909D14E0909E14F0909F1493
:1017F000C114D104E104F104B9F240E0C701B6011B
:1018000073DF882389F28091E1129091E2128115B1
:10181000924051F6A091E612AA2331F26091E412AF
:101820007091E5126115710509F4BECF2091E312A4
:10183000222309F4B9CFA0933E162093301690E0EE
:1018400080E030E0E1E0F0E0C82FAF01082E02C0F8
:10185000440F551F0A94E2F72417350769F041E059
:10186000480F01968930910579F7409339169CCF3E
:10187000C12CD12C7601C1CF809339162091EC1266
:101880003091ED1250E040E02115310541F42091F6
:10189000FA123091FB124091FC125091FD122093EC
:1018A0003116309332164093331650933416460156
:1018B0005701860E971EA11CB11C80923F16909274
:1018C0004016A0924116B0924216E091E712F091B4
:1018D000E812F0934516E0934416B0E00E94E668E3
:1018E000DC01CB01880D991DAA1DBB1D80934616F6
:1018F00090934716A0934816B093491625E0EE0F33
:10190000FF1F2A95E1F7E150FE4FEF2FFF27E695E5
:101910008E0F9F1FA11DB11D80933A1690933B1609
:10192000A0933C16B0933D168090E9129090EA1275
:10193000B12CA12C8114910441F48090F612909066
:10194000F712A090F812B090F912C81AD90AEA0A50
:10195000FB0AC80CD91CEA1CFB1C04C0F694E794D3
:10196000D794C794CA95D2F7C0923516D09236163E
:10197000E0923716F092381685EFC8168FE0D80639
:10198000E104F10428F48CE08093431681E00DCF4C
:1019900080E125EFC2162FEFD206E104F104A0F397
:1019A0008091021390910313A0910413B091051339
:1019B0008093461690934716A0934816B093491605
:1019C00080E2E2CF4F925F926F927F928F929F92CE
:1019D000AF92BF92CF92DF92EF92FF920F931F933D
:1019E000CF93DF93EC01423051056105710590F40E
:1019F00080E0DF91CF911F910F91FF90EF90DF90EA
:101A0000CF90BF90AF909F908F907F906F905F909E
:101A10004F90089589859A85AB85BC850196A11D57
:101A2000B11D84179507A607B70710F3CB88DC888C
:101A3000ED88FE888F89803109F042C0BB27A72F2F
:101A4000962F852F480159012A013B01C80ED91E46
:101A5000EA1EFB1E8091180290911902A0911A02B1
:101A6000B0911B02C816D906EA06FB0699F58F89C4
:101A70008031B9F5B301A201552766277727440FB6
:101A8000551F4A525D4EFA01918280828091201149
:101A90008160809320118A89823080F08D819E81BF
:101AA000AF81B8858C0D9D1DAE1DBF1D809321118A
:101AB00090932211A0932311B093241181E099CF28
:101AC000DB01CA01E7E0B695A79597958795EA955A
:101AD000D1F7B8CF40E0C701B60106DE8111C7CF0C
:101AE00087CFB301A2014F77552766277727440F89
:101AF000551F440F551F4A525D4EFA018082918254
:101B0000A282B382C3CF8F929F92AF92BF92CF92A5
:101B1000DF92EF92FF920F931F93CF93DF93FC011D
:101B200081859285A385B4850196A11DB11D841779
:101B30009507A607B70770F480E0DF91CF911F915A
:101B40000F91FF90EF90DF90CF90BF90AF909F905C
:101B50008F90089583889488A588B6888789803176
:101B600089F5BB27A72F962F852FE9016A017B01F5
:101B70008F01BC01CD01680D791D8A1D9B1D8090D0
:101B8000180290901902A0901A02B0901B028616BB
:101B90009706A806B90601F5F8018789803109F58D
:101BA000DD24EE24FF24F601EE0FFF1FEA52FD4E66
:101BB00080819181B0E0A0E088839983AA83BB8370
:101BC00081E0BBCFDB01CA01C7E0B695A795979529
:101BD0008795CA95D1F7C9CF40E086DD8111DCCF6A
:101BE000ABCFE894C7F8DD24EE24FF24F601EE0F16
:101BF000FF1FEE0FFF1FEA52FD4E80819181A281EF
:101C0000B381BF70D9CF4F925F926F927F92AF92A4
:101C1000BF92CF92DF92EF92FF920F931F93CF93D9
:101C2000DF9300D01F92CDB7DEB78C0149835A8372
:101C30006B837C835901C12CD12C7601412C82E02D
:101C4000582E612C712C49815A816B817C819E01B7
:101C50002F5F3F4FC80157DF882339F1F801858591
:101C6000A301920104C0220F331F441F551F8A9500
:101C7000D2F7DA01C901C80ED91EEA1EFB1E49813E
:101C80005A816B817C818789803111F188EF9FEFC8
:101C9000AFEFBFE0481759076A077B07A0F2F501CD
:101CA000C082D182E282F38281E00F900F900F9088
:101CB0000F90DF91CF911F910F91FF90EF90DF90E8
:101CC000CF90BF90AF907F906F905F904F900895AE
:101CD00088EF9FEFA0E0B0E0DDCFCF93DF93FC0172
:101CE0002581222321F080E0DF91CF910895EC013E
:101CF00080914316803159F582E08583178A108ED2
:101D0000118E128E8091441690914516B0E0A0E09D
:101D100025E0880F991FAA1FBB1F2A95D1F7838B37
:101D2000948BA58BB68B8CE296E19C8F8B8F81E098
:101D30008C831E821F82188619861A861B861C8633
:101D40001D861E861F86188A198A1A8ACDCF803270
:101D500051F683E085834091461650914716609175
:101D6000481670914916478B508F618F728F9F0173
:101D70002D5E3F4F8CE296E146DF8111D4CFB3CF89
:101D80008F929F92AF92BF92CF92DF92EF92FF928B
:101D90000F931F93CF93DF93EC018D8181110EC0C0
:101DA00080E0DF91CF911F910F91FF90EF90DF9036
:101DB000CF90BF90AF909F908F9008950B891C8912
:101DC0002D893E89041715072607370748F34A016E
:101DD0005B01823031F48A869B86AC86BD8681E0C9
:101DE000E0CF81149104A104B10449F41E821F8242
:101DF000188619861A861B861C861D86F0CF0A85D2
:101E00001B852C853D85EB8DFC8D858590E00996A5
:101E1000B901A8014150510961097109082E04C096
:101E200076956795579547950A94D2F775016401A1
:101E3000E1E0CE1AD108E108F10804C0F694E79475
:101E4000D794C7948A95D2F7C416D506E606F70646
:101E500020F0012B022B032B09F58F89988DA98D7A
:101E6000BA8D8E839F83A887B9878E010A5F1F4F23
:101E7000C114D104E104F10409F4ADCF4E815F81B6
:101E80006885798598018B8D9C8D3DDE91E0C91A1E
:101E9000D108E108F1088111EBCF82CFC41AD50A2D
:101EA000E60AF70AE2CF3F924F925F926F927F92DB
:101EB0008F929F92AF92BF92CF92DF92EF92FF925A
:101EC0000F931F93CF93DF93CDB7DEB72C970FB649
:101ED000F894DEBF0FBECDBF5C01DC015B968D9038
:101EE0009C905C9716964D905D906D907C901997A4
:101EF000411451046104710409F467C0BFEF4B1A27
:101F00005B0A6B0A7B0A312CF40181859285A385DB
:101F1000B4859C01AD012F5F3F4F4F4F5F4F298725
:101F20003A874B875C87730162011D821E821F8284
:101F30001886F40181859285A385B4852D813E8123
:101F40004F815885281739074A075B0708F054C0A6
:101F500089859A85AB85BC858C159D05AE05BF0529
:101F600050F482E0C82ED12CE12CF12C92E0492EC5
:101F7000512C612C712C9E012F5F3F4FB701A601A0
:101F8000C401C1DD8823C1F189819A81AB81BC8103
:101F9000892B8A2B8B2B09F1260137019FEF491AD8
:101FA000590A690A790A2D813E814F8158852F5F30
:101FB0003F4F4F4F5F4F2D833E834F8358873FEFF7
:101FC000C31AD30AE30AF30AB4CFF4014080518064
:101FD000628073803324339497CFC414D504E6040D
:101FE000F70409F70FEF1FEF2FEF3FE0B701A6014E
:101FF000C401E8DC811119C080E02C960FB6F8947A
:10200000DEBF0FBECDBFDF91CF911F910F91FF902B
:10201000EF90DF90CF90BF90AF909F908F907F9088
:102020006F905F904F903F900895F50146815781E2
:1020300060857185411551056105710531F0970184
:102040008601C401BFDC8823B9F2D5011696CD9272
:10205000DD92ED92FC921997332051F0D701C60121
:102060000196A11DB11DF40180839183A283B383E6
:10207000F5018789908DA18DB28D892B8A2B8B2BB1
:1020800039F4C78AD08EE18EF28E84818068848391
:1020900081E0B3CFCF93DF93EC018D81882379F179
:1020A0008C8187FF29C06E857F858889998941E069
:1020B0001BDB882321F1EA8980E2E89FF0011124EB
:1020C000EA52FD4E3097D9F08D81823040F48B89F1
:1020D0009C89AD89BE89848F958FA68FB78F8F8994
:1020E000988D938F828F8F89988DA98DBA8DB58B9E
:1020F000A48B8C818F778C83DF91CF91BACA80E0DB
:10210000DF91CF910895CF93DF93EC01C3DF882354
:1021100011F01D8281E0DF91CF9108952F923F92BF
:102120004F925F926F927F928F929F92AF92BF92E7
:10213000CF92DF92EF92FF920F931F93CF93DF9393
:1021400000D01F92CDB7DEB78C015B011A01DC0114
:1021500015968C911597813009F0C5C014968C9115
:1021600081FFC1C082FDACC06101D8011A964D91BA
:102170005D916D917C911D97C114D10409F423C127
:102180005B968D919C915C97FC0174802FEF270DDD
:102190002A013B0139E076946794579447943A9525
:1021A000D1F7722E74207A01F1E0FF2271101FC066
:1021B000E114F104E1F416964D915D916D917C91DD
:1021C0001997411551056105710509F095C057969C
:1021D0008D919D910D90BC91A02D0097A105B10509
:1021E00009F0ABC0C8015FDE882309F47CC080E041
:1021F00092E08E199F0946018C159D0508F44C014B
:10220000D8015B964D915C915C9716968D919D914E
:102210000D90BC91A02D0297A109B109FA01258565
:1022200004C0880F991FAA1FBB1F2A95D2F74685A5
:10223000578560897189840F951FA61FB71F9C0160
:10224000AD01270D311D411D511D29013A01811498
:1022500032E0930609F077C080911802909119023C
:10226000A0911A02B0911B0284159505A605B70529
:1022700059F48FEF9FEFDC018093180290931902BD
:10228000A0931A02B0931B029501B301A2018091A1
:10229000D6149091D71490D9882329F19EEFB91ABA
:1022A000C818D908F80182859385A485B585880D5D
:1022B000991DA11DB11D82879387A487B58755CF2E
:1022C000F801438954896589768982859385A48537
:1022D000B585481759076A077B0709F445CFC80138
:1022E0004FDD811141CF81E090E0D80113969C939E
:1022F0008E93129780E006C09E012F5F3F4F03DC54
:10230000811102C090E075C089819A81AB81BC8146
:10231000F801238D348DF901278948EF5FEF60E0E4
:1023200070E0203121F048EF5FEF6FEF7FE084171E
:102330009507A607B70708F055CFF801868397835E
:10234000A087B18754CFE114F10489F5D8011A961A
:102350004D915D916D917C911D9753968D919D91BD
:102360000D90BC91A02D481759076A077B07F8F01C
:1023700080D9882309F4B7CF4092180250921902ED
:1023800060921A0270921B028091201181608093EA
:10239000201197012A523D4ED501C901880D991D82
:1023A000F9018E179F0751F04D914193FACF41E00B
:1023B000C301B20199D98111ECCF95CF821B930B48
:1023C000A80EB91E6DCFF80183899489A589B689B5
:1023D00084179507A607B70738F48481438B548B7D
:1023E000658B768B80688483F801848183FD18C0B7
:1023F000C1010F900F900F900F90DF91CF911F911F
:102400000F91FF90EF90DF90CF90BF90AF909F9093
:102410008F907F906F905F904F903F902F90089596
:10242000C80138DE882309F45ECFE2CFCF93DF9373
:102430001F92CDB7DEB7698341E050E0BE016F5F08
:102440007F4F6CDE0F90DF91CF910895FC01DB018F
:1024500012968D919C911397938382838FE89AE0D3
:102460009183808314968C911497848315968C9114
:102470001597858316964D915D916D917C91199775
:1024800046835783608771871A964D915D916D9150
:102490007C911D9742875387648775871E964D915F
:1024A0005D916D917C91519746875787608B718BB9
:1024B00052968C915297828B53964D915D916D916E
:1024C0007C915697438B548B658B768B57964D91A9
:1024D0005D916D917C915A97478B508F618F728F70
:1024E0005B968D919C91948F838F0895FC01818DD3
:1024F000928D009709F0CECD0895DC015996ED91AB
:10250000FC913097B9F083899489A589B689428571
:10251000538564857585841B950BA60BB70B8115B8
:1025200020E89207A105B10538F08FEF9FE7A0E002
:10253000B0E0089590E080E00895CF93DF93EC0140
:10254000E98DFA8D309749F481E090E09B838A838E
:1025500090E080E0DF91CF91089513821282898DFF
:102560009A8DDCDDE98DFA8D22813381232B61F791
:10257000F1CFCF93DF931F92CDB7DEB76983DC0134
:10258000ED91FC910280F381E02D41E050E0BE012D
:102590006F5F7F4F19950F90DF91CF9108952F9224
:1025A0003F924F925F926F927F928F929F92AF92E3
:1025B000BF92CF92DF92EF92FF920F931F93CF9330
:1025C000DF9300D0CDB7DEB7FC018581811118C043
:1025D0008FEF9FEF0F900F900F90DF91CF911F9192
:1025E0000F91FF90EF90DF90CF90BF90AF909F90B2
:1025F0008F907F906F905F904F903F902F900895B5
:10260000848180FFE5CF43895489658976898285F5
:102610009385A485B585312C212C481759076A0765
:102620007B0719F022242394312C6F012101CE0164
:1026300001963C01DF011696BB83AA834114510425
:1026400009F4C3C0F60142855385648575854A0146
:10265000F1E09F22D6015B968D919C915C978A0157
:102660009B01E9E03695279517950795EA95D1F7EF
:102670001596EC91E230E1F5FC01628D738D848D4D
:10268000958D600F711F821F931FA12C22E0B22E27
:10269000A818B9084A145B0408F45201F601248111
:1026A00026FD04C0A114F2E0BF0671F400911802E7
:1026B0001091190220911A0230911B020617170778
:1026C0002807390709F05CC040E00ED8882309F4D8
:1026D0007FCFC4018A529D4ED3019C012A0D3B1D20
:1026E000FC012E173F0709F46BC041914D93F9CFC0
:1026F000DC011496BC90BA94B0228114910479F450
:10270000B1100DC0452B462B472B69F5F601878983
:10271000908DA18DB28D86839783A087B187D601D6
:102720005B96ED91FC915C9716966D917D918D91E4
:102730009C9119976250710981099109258504C0FE
:10274000660F771F881F991F2A95D2F70685178570
:1027500020893189600F711F821F931F6B0D711DBE
:10276000811D911D92CFD60116964D915D916D916F
:102770007C9119972A813B81C6D98111D0CF28CF6E
:10278000730185019401AB01BC018091D614909135
:10279000D7140E94440A882309F41ACF6A0C7B1CC0
:1027A000F60182859385A485B5858A0D9B1DA11DA3
:1027B000B11D82879387A487B5874A185B083ECFEF
:1027C000281B390B620E731EEBCF2A94232809F0C5
:1027D000FFCE898190E0FECEFC01818D928D009725
:1027E00009F0DDCE8FEF9FEF08950F931F93CF93E6
:1027F000DF93EC01898D9A8D10E000E0009789F05D
:10280000CEDE8C010F3F100761F0898D9A8DFC019F
:102810004285538564857585415051096109710967
:10282000AFDAC801DF91CF911F910F910895CF9337
:10283000CFB7F89480911E11811127C0EEE7F7E021
:102840008491E4ECF7E09491E82FF0E0EE0FFF1FA5
:10285000EB5CFB4FA591B491EC91E92321F461E08D
:1028600085E30E94990661E085E30E94F6068CB537
:1028700080618CBD8CB580648CBD61E084E30E9476
:10288000F60661E083E30E94F60680911E118F5FD9
:1028900080931E11CFBFCF91089585ED8093BC002A
:1028A0008091BC0084FDFCCF1092261508952091E4
:1028B000FB10260F3327331F21323105ECF4209112
:1028C0002615FC0190E080E0243069F082E0089554
:1028D000A091FB102191AC0145525F4EA40FB52F82
:1028E000B11D2C930196861798F38091FB10680F09
:1028F0006093FB1080E0089581E00895E091DF147B
:102900008091DE14E81730F4F0E0E052FB4E808155
:1029100090E008958FEF9FEF08959091DF148091DC
:10292000DE142FEF3FEF981748F4E92FF0E0E05264
:10293000FB4E208130E09F5F9093DF14C901089522
:102940008091DE149091DF14891B990B0895CF922A
:10295000DF92EF92FF920F931F93CF93DF937C014F
:10296000CB018A0120912715222389F0EB016B010D
:10297000C40ED51ECC15DD0561F06991D701ED912E
:10298000FC910190F081E02DC7011995F3CF642FE0
:102990008EDFC801DF91CF911F910F91FF90EF90D3
:1029A000DF90CF900895CF93DF931F92CDB7DEB71E
:1029B0006983209127152223F9F020914A152032AE
:1029C00058F021E030E0FC013383228390E080E086
:1029D0000F90DF91CF91089580912815E82FF0E0B6
:1029E000E75DFA4E998190838F5F809328158093DD
:1029F0004A1581E090E0ECCF61E0CE01019657DF0F
:102A0000F8CF0F931F93CF93DF93D62F91E090933E
:102A1000271598E6909349151092281510924A159B
:102A2000682F89E696E1BFDF0BE812E1C0E0F8010C
:102A300061918F0189E696E1B6DFCF5FDC13F7CFB6
:102A400081E00E9451048D2FDF91CF911F910F9152
:102A50000895FC01248131E0309327152093491516
:102A60001092281510924A158385682B89E696E105
:102A70009ADF81E00C9451040895CF92DF92EF9297
:102A8000FF921F93CF93DF937C01C7E0D0E010E06B
:102A9000CC24C394D12C60E0F70182810E94990676
:102AA00061E070E080E090E00E946E07F7018681AF
:102AB0000E947106892B39F0C6010C2E01C0880FC7
:102AC0000A94EAF7182B61E0F70182810E949906C7
:102AD00061E070E080E090E00E946E072197D8F6F8
:102AE000812FDF91CF911F91FF90EF90DF90CF90DA
:102AF00008950F931F93CF93DF938C0160E0FC0147
:102B000084810E94990661E070E080E090E00E947C
:102B10006E07C801B2DFC82FD0E0DC2FCC27C80178
:102B2000ACDFC82B61E0F80184810E94990660E067
:102B300070E080EC9FE7C2FD12C0BE0183E0759596
:102B400067958A95E1F7072E000C880B990B0E9478
:102B5000BA6720E030E040E85EE30E941968DF9148
:102B6000CF911F910F910895C4DF26E636E646EE19
:102B70005FE30E94196820E030E040E052E40C94EA
:102B800022690895B6DF23E333E948E853E40C945F
:102B900022690895DC0180E0615038F0ED91E8276A
:102BA000F0E0EB5DFC4F8491F7CF0895DC012C91B0
:102BB0001196ED91FC91F8948181822B8183928111
:102BC000322F30959323928387E090E00197F1F7BD
:102BD00081818323818383E290E00197F1F79081E3
:102BE0007894EFECF0E03197F1F7922381E009F46B
:102BF00080E00895FC0190810180F281E02D292F71
:102C0000209560FF14C0F8948281822382838181A1
:102C1000892B8183A3E2B0E01197F1F78281982B91
:102C20009283789487ED90E00197F1F70895F894F6
:102C30008281822382838181892B8183AFEFB0E0FF
:102C40001197F1F78281982B928378948FE090E02E
:102C5000EBCFDF92EF92FF920F931F93CF93DF930F
:102C6000EC01D62EE42E08E010E0FF24F39461E09E
:102C70008D2D8F2109F460E0CE01BCDFFF0C0150E7
:102C80001109A9F7E11010C0F894E981FA81918146
:102C90008881809589238183E981FA819281888165
:102CA0008095892382837894DF91CF911F910F9132
:102CB000FF90EF90DF900895EF92FF920F931F9394
:102CC000CF93DF938C017B0140E065E5C2DFE70134
:102CD00088E0E80EF11C699140E0C801BADFCE152A
:102CE000DF05C9F7DF91CF911F910F91FF90EF9012
:102CF0000895FC0190810180F281E02DF89481819A
:102D0000292F20958223818378943DE743E050E08A
:102D1000315029F1DA011197F1F780818923C1F34C
:102D2000F8948281822382838181892B81837894A4
:102D3000ABE7B7E01197F1F7F894818182238183A3
:102D4000A3E1B1E01197F1F78081982381E009F0C8
:102D500080E07894E3E6F6E03197F1F7089580E0BB
:102D600008958F929F92AF92BF92CF92DF92EF928F
:102D7000FF920F931F93CF93DF938C01EB01809110
:102D80001F1790912017B5DF811102C090E039C064
:102D9000B80180911F17909120178EDF40E06EEBF5
:102DA00080911F179091201754DF8E015E0189E0FA
:102DB000A80EB11C80901F179090201788E0C82E95
:102DC000D12CF12CEE24E394C401F0DE8111FE2815
:102DD000EE0CE1E0CE1AD108B9F7F801F1928F01BB
:102DE000EA15FB0539F780911F179091201781DFB5
:102DF000813061F668E0CE01CDDE91E028852813B0
:102E0000C5CF892FDF91CF911F910F91FF90EF9048
:102E1000DF90CF90BF90AF909F908F9008950F93C9
:102E20001F93CF93DF9300D000D000D0CDB7DEB793
:102E30008C01BE016F5F7F4F94DF20E834EE882362
:102E400051F12A8130E0322F2227330F330F330F15
:102E5000898148E0849FC0011124282B392BF80177
:102E600080818031C1F4688570E08F81AB01481B9F
:102E70005109CA019695982F8827979587950E94A2
:102E8000566A6051710953E0220F331F5A95E1F7DA
:102E90002078260F371FC90129960FB6F894DEBF98
:102EA0000FBECDBFDF91CF911F910F910895CF93AA
:102EB000DF9300D000D000D0CDB7DEB7FC01208179
:102EC000203191F0BE016F5F7F4F4BDF882331F0DF
:102ED0008D818F33A9F020F48F31A1F080E007C0FD
:102EE0008F3521F08F37D1F78CE001C08BE0299628
:102EF0000FB6F894DEBF0FBECDBFDF91CF9108951E
:102F00008AE0F5CF89E0F3CF8F929F92AF92BF9284
:102F1000CF92DF92EF92FF9280911F17909120172E
:102F2000E8DE40E06CEC80911F179091201791DE55
:102F30004091191764E480911F179091201789DE42
:102F400080911B17882391F1E0911A17E9508EEEBA
:102F5000C82E82E0D82EE33038F4F0E0EE0FFF1FE9
:102F6000EF59F54FC080D18080911C17882339F12B
:102F700080911917811123C00E949F074B015C01AA
:102F80000D2C000CEE08FF0880911F179091201760
:102F90000DDE813059F00E949F076C197D098E0962
:102FA0009F09681579058A059B0570F3FF90EF90DE
:102FB000DF90CF90BF90AF909F908F900895B60113
:102FC000DD0C880B990BFF90EF90DF90CF90BF90B6
:102FD000AF909F908F900C946E07BF92CF92DF922C
:102FE000EF92FF920F931F93CF93DF93EC01B62ED6
:102FF000C72EED84EE2081F01B861D861C8680E0A6
:103000002396EB2DFC2D9F01285F3F4F99919193C3
:103010002E173F07D9F706C06CDE81110DC01B8645
:103020001D861C86DF91CF911F910F91FF90EF902D
:10303000DF90CF90BF90089540E060EFCE0109DEB1
:10304000D12C01E011E0CE01B1DDF82ECE01AEDDD4
:1030500091E0F9120EC0813049F5113468F2EB8627
:10306000E11002C081E08D878B81882329F281E005
:10307000C7CFED2DF0E0F8120FC08B851817A0F424
:10308000DE01AE0FBF1F13968C91802379F4F12CD3
:10309000193008F41C87E12EEC0FFD1F8381902F5F
:1030A0009095892383830AC08113F1CFFE01ED0D32
:1030B000F11D8381802B8383FF24F3946F2DCE0138
:1030C00099DD1F5F000F11F4D39401E087E08D15A7
:1030D00008F0B9CFC2CF0F931F93CF93DF938C012A
:1030E000D62FE0911F17F0912017138615861486AE
:1030F0001286118610861782168215821482138218
:10310000C0E0B80180911F179091201766DF8823D7
:1031100029F0DC1749F0CF5FDC1798F780E0DF91EA
:10312000CF911F910F91089567E0C80133DDF80139
:1031300097818913F0CF81E0F2CFCF93DF93EC0139
:10314000FB01828193819B838A8384819581A681FF
:10315000B7818C839D83AE83BF8380859185A28553
:10316000B38588879987AA87BB878BE69AE099837E
:1031700088838DE03C96DE011C9601900D928A9525
:10318000E1F7FB01818D928D9A8F898FDF91CF912D
:103190000895089590E080E0089528EF34E2309398
:1031A0004212209341129AE1899FF0011124E15DBE
:1031B000FB4F848195819093401280933F12089534
:1031C0009AE1899FF0011124E15DFB4F8481958193
:1031D000442341F02091D5103091D610FC01318369
:1031E00020830895FC01808191819093D610809373
:1031F000D51085ED90E108959AE1899FF0011124A1
:10320000E15DFB4F84819581442329F02091D41006
:10321000FC0120830895FC0180818093D41084ED0B
:1032200090E108959AE1899FF0011124E15DFB4F3F
:1032300084819581442329F02091D310FC012083BF
:103240000895FC0180818093D31083ED90E108956F
:1032500081E090914602933009F080E00895282F94
:1032600030E08AE1829FF001839FF00D1124E15D3F
:10327000FB4F442349F00688F789E02D309719F079
:103280008091D010199508950480F581E02D309734
:1032900011F01995482F4093D01080ED90E10895DA
:1032A0008F929F92AF92BF92CF92DF92EF92FF9256
:1032B0000F931F93CF93DF938B019AE1899FF001C6
:1032C0001124E15DFB4F672B11F404811581D801B6
:1032D000CD91DC91C40FD11D47FDDA95C680D78012
:1032E000E084F18482849384A484B584BE010D2E8D
:1032F000000C880B990B0E94BA67A70196010E94E7
:10330000B46787FF05C0C501B4010E94EE69EB01F7
:10331000BE010D2E000C880B990B0E94BA67A50107
:1033200094010E941F6A18162CF4C701B6010E946E
:10333000EE69EB01F801D183C083DF91CF911F913A
:103340000F91FF90EF90DF90CF90BF90AF909F9044
:103350008F9008958F929F92AF92BF92EF92FF92BB
:103360000F931F93CF937B019AE1899F80011124D2
:10337000015D1B4F672B19F4F801E480F580F7011C
:103380008081C42FC80FF80186809780A084B18403
:103390006C2F0C2E000C770B880B990B0E94BA67D0
:1033A000A50194010E94B46787FF05C0C501B4015F
:1033B0000E94EE69C62FF80182849384A484B584A8
:1033C0006C2F0C2E000C770B880B990B0E94BA67A0
:1033D000A50194010E941F6A18162CF4C501B401BE
:1033E0000E94EE69C62FF701C083CF911F910F9104
:1033F000FF90EF90BF90AF909F908F9008958F9225
:103400009F92AF92BF92CF92DF92EF92FF920F9373
:103410001F93CF938B019AE1899FF0011124E15D05
:10342000FB4F672B11F404811581D8018C91C42FB7
:10343000C80FC680D780E084F18482849384A484FA
:10344000B5846C2F70E090E080E00E94BA67A7011D
:1034500096010E94B46787FF05C0C501B4010E94B0
:10346000F369C62F6C2F70E090E080E00E94BA678D
:10347000A50194010E941F6A18162CF4C701B60119
:103480000E94F369C62FF801C083CF911F910F915D
:10349000FF90EF90DF90CF90BF90AF909F908F9074
:1034A00008952AE1289FF001299FF00D1124E15D84
:1034B000FB4F8281938196958795817008952AE1CB
:1034C000289FF001299FF00D1124E15DFB4F8281BF
:1034D00093819695879521E0822781700895E091E8
:1034E00043022AE0E29FF0011124ED52FC4F27E055
:1034F000289FD001299FB00D1124AC56BC4F81E00C
:1035000020819C91291380E00895AF92BF92CF92C1
:10351000DF92EF92FF920F931F93CF93DF936C0193
:10352000C82FDD2DAA24A394B12C611103C0AA24B5
:10353000AA94BA2C0AE010E001501109E9F0CA0D72
:10354000DB1DD7FD16C0C930D10514F0D0E0C0E0B6
:103550007E01CE01C4DF882379F3C701DF91CF91CB
:103560001F910F91FF90EF90DF90CF90BF90AF90A1
:103570000895C8E0D0E0ECCF7601EFCF8F929F9214
:10358000AF92BF92CF92DF92EF92FF920F931F9371
:10359000CF93DF93982E892E5A01C82FD92FCC2490
:1035A000C394D12C611103C0CC24CA94DC2C0EE34B
:1035B00010E00150110981F0CC0DDD1DD7FD1CC0BC
:1035C000CD33D10514F0D0E0C0E07E01CE01F5018D
:1035D0001995882371F302C0E92CF82CC701DF91FB
:1035E000CF911F910F91FF90EF90DF90CF90BF9000
:1035F000AF909F908F900895CCE3D0E0E6CFFC0190
:10360000AC014F5E5F4F20E030E2222341F0308377
:103610003196E417F507C9F7FC01108A0895608117
:103620006111F6CF308321E0F3CFCF93DF93CDB795
:10363000DEB72F970FB6F894DEBF0FBECDBF9FE069
:10364000989F90011124205A3E4E8FE0F901DE012F
:10365000119601900D928A95E1F7969FB001112481
:10366000605A7E4E8FE0FB01D90101900D928A9540
:10367000E1F78FE0FE013196DB0101900D928A9512
:10368000E1F72F960FB6F894DEBF0FBECDBFDF91E6
:10369000CF910895FC012681378144815581C9016C
:1036A0002417350720F482819381820F931F841B96
:1036B000950B0895EF92FF920F931F93CF93DF9393
:1036C000EC01E090E317F090E4170091E1171091FE
:1036D000E217E016F10629F1D7FD1DC0C00FD11F7A
:1036E0008091DD179091DE172091DF173091E01760
:1036F000C217D30710F0C21BD30B23E0CC0FDD1F82
:103700002A95E1F78C0F9D1FDF91CF911F910F91AB
:10371000FF90EF9008958DED97E1BCDFC80FD91FA2
:10372000D8CF90E080E0F0CF26E0289FF001299FDD
:10373000F00D1124EA51FD4F8181811106C0809165
:10374000C1108F5F8093C1100895813029F480915A
:10375000C0108F5F8093C010089520913E02309179
:103760003F0240914002509141026091FE117091E0
:10377000FF1180910012909101120E941F6A87FD33
:1037800004C081E09091ED11911180E008952091A5
:103790003E0230913F0240914002509141026091BF
:1037A000FE117091FF1180910012909101120E9400
:1037B0001F6A87FF08C08091ED11882321F081E006
:1037C0009091E011911180E00895CF92DF92EF92F5
:1037D000FF92CF93C090FE11D090FF11E0900012A5
:1037E000F09001126091981670E090E080E00E94E5
:1037F000BA6720913E0230913F02409140025091C1
:1038000041020E942269A70196010E94B467C1E0AB
:10381000181654F420E030E044EB52E4C701B6013E
:103820000E941F6A87FDC0E08C2FCF91FF90EF9020
:10383000DF90CF900895CF92DF92EF92FF92809128
:10384000ED11882309F445C0C090E511D090E61130
:10385000E090E711F090E81120E030E040E05FEB0D
:10386000C701B6010E941F6A18169CF1A7019601B4
:10387000C701B6010E9422692091FE113091FF110B
:1038800040910012509101120E9422696B017C014B
:103890006091971670E090E080E00E94BA679B010B
:1038A000AC0160913E0270913F0280914002909184
:1038B00041020E9421699B01AC01C701B6010E942F
:1038C000B467881F8827881FFF90EF90DF90CF9004
:1038D000089580E0F9CF6091971670E090E080E065
:1038E0000E94BA679B01AC0160913E0270913F0259
:1038F00080914002909141020E9421692091FE1125
:103900003091FF1140910012509101120E941F6AE4
:1039100018164CF08091ED11811105C081E0909155
:10392000E011911101C080E008954F925F926F9273
:103930007F928F929F92AF92BF92CF92DF92EF923F
:10394000FF92C0903E02D0903F02E0904002F09083
:1039500041028090FE119090FF11A0900012B09053
:1039600001126091971670E090E080E00E94BA67C3
:103970009B01AC01C701B6010E942169A501940118
:103980000E941F6A1816E4F18091ED1120E030E0EA
:1039900040E05FE3811104C02DEC3CEC4CE45EE3BD
:1039A0004090E5115090E6116090E7117090E81199
:1039B000C301B2010E94B46787FD22C020E030E05D
:1039C00040E250E4C301B2010E941968A5019401CC
:1039D0000E9422699B01AC01C701B6010E94B46735
:1039E000881F8827881FFF90EF90DF90CF90BF90AF
:1039F000AF909F908F907F906F905F904F900895C1
:103A000080E0F1CFCF93C1E020913E0230913F02A0
:103A100040914002509141026091FE117091FF115E
:103A200080910012909101120E941F6A87FDC0E0F0
:103A30008C2FCF910895CF92DF92EF92FF920E9448
:103A40009F0721E0C090C710D090C810E090C91027
:103A5000F090CA106C157D058E059F0508F420E0D6
:103A6000822FFF90EF90DF90CF900895CF938091B9
:103A7000ED118823D9F020E030E040E05FE3609171
:103A80003E0270913F0280914002909141020E945B
:103A90002169C1E02091FE113091FF114091001287
:103AA000509101120E941F6A18160CF0C0E08C2F72
:103AB000CF910895CF938091ED11811120C0609135
:103AC000971670E090E080E00E94BA679B01AC011D
:103AD00060913E0270913F028091400290914102BC
:103AE0000E942169C1E02091FE113091FF114091A7
:103AF0000012509101120E941F6A18160CF0C0E0CB
:103B00008C2FCF910895CF92DF92EF92FF92CF93B7
:103B1000C091ED11CC2309F445C0C090FE11D090A6
:103B2000FF11E0900012F09001126091971670E082
:103B300090E080E00E94BA679B01AC0160913E0278
:103B400070913F0280914002909141020E94216950
:103B5000A70196010E941F6A181614F1C23011F5D0
:103B60006091991670E090E080E00E94BA67209121
:103B7000D8113091D9114091DA115091DB110E9486
:103B800022699B01AC01C701B6010E94B467881F7E
:103B90008827881FCF91FF90EF90DF90CF900895F6
:103BA00081E0F8CF80E0F6CFCF92DF92EF92FF92E4
:103BB0000F931F93809146028150823040F080E045
:103BC0001F910F91FF90EF90DF90CF9008950E948A
:103BD0009F076B017C012091F216222381F330E0D4
:103BE000A0E6BAEE0E9412690091F6111091F71149
:103BF0002091F8113091F911C01AD10AE20AF30AA2
:103C00006C157D058E059F05D0F62091DC11309155
:103C1000DD114091DE115091DF116091BC10709167
:103C2000BD108091BE109091BF100E94216920E0CC
:103C300030E040E050E40E94B46787FFC0CF8BECD7
:103C40009AE09093C6108093C51081E0B9CFCF93CE
:103C5000DF93D0916E11D1110BC083ED9AE0909358
:103C6000C6108093C510D1E08D2FDF91CF910895BC
:103C7000C091F116CC2359F080918C11811107C0AD
:103C800083EE9AE09093C6108093C510EDCF20E0AC
:103C900030E044EB52E46091FE117091FF1180918D
:103CA0000012909101120E941F6A18161CF485EFF1
:103CB0009AE0E8CFCC23A9F06C2F70E090E080E090
:103CC0000E94BA67209138023091390240913A023D
:103CD00050913B020E94B46787FF03C08FEF9AE0C8
:103CE000D1CFDF91CF9160CF0895CF92DF92EF9245
:103CF000FF9220E030E048EC52E46091B710709100
:103D0000B8108091B9109091BA100E9419686B0197
:103D10007C016091440270E090E080E00E94BA670C
:103D20009B01AC01C701B6010E9486690E94F3693C
:103D3000862FFF90EF90DF90CF900895CF92DF9283
:103D4000EF92FF92CF93C62F682F70E090E080E053
:103D50000E94B8676B017C016C2F70E090E080E0FE
:103D60000E94BA679B01AC01C701B6010E941968A5
:103D700020E030E048EC52E40E9486696093B7107E
:103D80007093B8108093B9109093BA10C093440206
:103D9000CF91FF90EF90DF90CF9008956091440213
:103DA000611102C06091F016C9CFCF938091460295
:103DB000833041F4C42F99DF8C0F853608F084E6F8
:103DC000CF91ECCFCF910895CF92DF92EF92FF92F7
:103DD000CF938091B3109091B410A091B510B09191
:103DE000B6100196A11DB11D8093B3109093B4102D
:103DF000A093B510B093B610809106018093B210D5
:103E00006091B3107091B4108091B5109091B6107C
:103E10002091440230E050E040E00E94F068C62F5C
:103E200061113AC02091B7103091B8104091B9108B
:103E30005091BA106091A9107091AA108091AB10A6
:103E40009091AC100E9422696B017C0120E030E06F
:103E5000A9010E941F6A20E030E040E05FE387FD97
:103E600041C0C701B6010E9422690E94EE696093B9
:103E7000A81070E090E080E00E94BA679B01AC015E
:103E8000C701B6010E9421696093A9107093AA101E
:103E90008093AB109093AC108091A810C81738F5A0
:103EA0008091AE109091AF10A091B010B091B11070
:103EB0000196A11DB11D8093AE109093AF10A093F9
:103EC000B010B093B1108091AD1080628093AD10AE
:103ED0008091AD1080930801CF91FF90EF90DF901B
:103EE000CF900895C701B6010E942169BECF80918D
:103EF000AD108F7DEBCF8091060182FB882780F982
:103F00000895863070F494E0899FF0011124E05008
:103F1000FE4F13829091AD1081818095892380930B
:103F2000AD100895863070F494E0899FF00111245B
:103F3000E050FE4F81E083838091AD109181892B09
:103F40008093AD1008959091060124E0829FF001C6
:103F50001124E050FE4F8181982381E009F480E034
:103F60000895CF939AE1899FF0011124E15DFB4F01
:103F7000C481C63070F480914602833051F48C2F96
:103F8000E2DF882319F08C2FCF91BBCF8C2FCF91FC
:103F9000C9CFCF910895EF92FF920F931F93CF93C4
:103FA000DF93D62FE72EC42F91E09093271598E644
:103FB000909349151092281510924A15682F89E69A
:103FC00096E10E94D31481E00E94510481115BC0EC
:103FD000909126159111FCCF91E090932615909326
:103FE00025152FEF20932415109223152C0F2093C5
:103FF00022159093011590910115906D90930115E4
:10400000909100159130B9F510920015909101151D
:104010009093BB009091BC0093FDF8CF95EC9093EA
:10402000BC00909126159130E1F3909123159C17D7
:1040300020F590912315A2E0B5E1E0EEF4E18913BB
:104040001EC01092DF148093DE14FD2E0D2F1E2D46
:1040500089E696E10E948D14F80181938F018E2FDD
:104060008F198C17A8F38C2FDF91CF911F910F918F
:10407000FF90EF90089595EED2CF9C2FDCCF2D913D
:1040800021938F5FDCCFC0E0EECF47E06BE872E1B9
:1040900080E081DF20918B122F77822F90E0F4E077
:1040A00095958795FA95E1F7982F990F990F891BA8
:1040B000880F820F80937B1620918C12822F90E0C4
:1040C000A4E095958795AA95E1F7982F990F990FF8
:1040D000891B880F820F80937A1680918D1286FF3C
:1040E0005EC0982F9F71292F30E0E4E03595279529
:1040F000EA95E1F7322F330F330F231B220F290FDD
:1041000020937916807280937D1620918E12822FD3
:1041100090E034E0959587953A95E1F7982F990FBF
:10412000990F891B880F820F80937C1620918F1224
:10413000822F90E044E0959587954A95E1F7982F76
:10414000990F990F891B880F820F80937816209101
:104150009012822F90E054E0959587955A95E1F75B
:10416000982F990F990F891B880F820F80937716CC
:1041700020919112822F90E064E0959587956A9541
:10418000E1F7982F990F990F891B880F820F90E004
:104190008053984F90937616809375160895282F24
:1041A0002F73822F90E074E0959587957A95E1F7CB
:1041B000982F990F990F891B880F820F809379167A
:1041C00010927D16A2CFCF92DF92EF92FF921F93B3
:1041D000CF93DF93EC0180E2689FF0011124EA5253
:1041E000FD4E9385917161F0842F827449F080E0D7
:1041F000DF91CF911F91FF90EF90DF90CF900895C6
:10420000142F6A8B8091180290911902A0911A02C2
:10421000B0911B028E879F87A88BB98BC488D588E5
:10422000F12CE12C7601DD24CC24CF8AD88EE98EC6
:10423000FA8E828D938DB0E0A0E0AC01BD014C29D7
:104240005D296E297F294F8B588F698F7A8F8385DF
:104250008871B1F4848D958DA68DB78D8B8B9C8BD9
:10426000AD8BBE8B81E08D831F701C831E821F82ED
:10427000188619861A861B861C861D8681E0B8CF93
:10428000803109F0B4CF9E012D5E3F4F8B8D9C8D08
:104290000E94030E882309F4AACF84E0E4CF0F9391
:1042A0001F93CF938C01C62F0E9429156C2F646039
:1042B000C8010E9429156C2F6B7FC8010E94291527
:1042C00083EC90E00197F1F7CF911F910F91089542
:1042D0000F931F93CF93DF938C01D62FC42F607F52
:1042E000642BDDDF80E1D89FB00111246C2BC80165
:1042F000DF91CF911F910F91D2CFCF93DF9300D059
:1043000000D01F921F92CDB7DEB798E0E6E5F2E04D
:10431000DE01119601900D929A95E1F79091151793
:10432000981708F48FEF90E0880F991F21E030E094
:104330002C0F3D1F820F931FFC016081606840E0DD
:104340008DE097E128960FB6F894DEBF0FBECDBF83
:10435000DF91CF91BDCF41E0BBDF81E090E00895D8
:10436000FB0101900020E9F73197AF01461B570B85
:10437000DC01ED91FC910280F381E02D19948F9284
:104380009F92AF92BF92EF92FF920F931F93CF93A2
:10439000DF93CDB7DEB7A1970FB6F894DEBF0FBE9F
:1043A000CDBF7C01FA01CB0119A2223008F42AE02A
:1043B0008E010F5D1F4F822E912CB12CA12CBF01BD
:1043C000A50194010E94F068F901CA016A3004F560
:1043D000605DD8016E938D01232B242B252B79F75B
:1043E00090E080E0109719F0BD01C701B9DFA196F8
:1043F0000FB6F894DEBF0FBECDBFDF91CF911F91F6
:104400000F91FF90EF90BF90AF909F908F90089585
:10441000695CDFCFAB0170E060E02AE0B0CF462FEF
:1044200050E070E060E02AE0AACF8F929F92AF92B6
:10443000BF92CF92DF92EF92FF920F931F93CF9391
:10444000DF937C018B014C0182E0880E911C5701A7
:10445000E5E0AE0EB11CD0E0C0E0F40161914F0187
:10446000C801DDDF6C016EE2C8010E94B5048C0D4D
:104470009D1DC80FD91F8A149B0479F7F701658128
:10448000C801CDDF8C0F9D1FDF91CF911F910F9140
:10449000FF90EF90DF90CF90BF90AF909F908F9064
:1044A0000895CF92DF92EF92FF920F931F93CF93D5
:1044B000DF936B01770FEE08FF08F7FE1AC0EC01DF
:1044C0006DE20E94B5048C0144275527BA014C19AE
:1044D0005D096E097F092AE0CE0151DF800F911F2F
:1044E000DF91CF911F910F91FF90EF90DF90CF90D0
:1044F00008952AE0B701A601DF91CF911F910F9196
:10450000FF90EF90DF90CF903ACF2F923F924F9253
:104510005F926F927F928F929F92AF92BF92CF9253
:10452000DF92EF92FF921F93CF93DF93EC016A012A
:104530007B01722EAB019601CB01B6010E94236A6A
:104540006FE07BE0811126C046015701E894B7F87F
:104550002FEF3FEF4FE75FE7C501B4010E94236AE9
:1045600081110CC02FEF3FEF4FE75FE7C501B401AA
:104570000E94B46763E17BE0181664F02FEF3FEF11
:104580004FE75FE4C701B6010E941F6A1816ACF43A
:1045900067E17BE0CE01DF91CF911F91FF90EF901B
:1045A000DF90CF90BF90AF909F908F907F906F9053
:1045B0005F904F903F902F90D3CE2FEF3FEF4FE77C
:1045C0005FECC701B6010E94B46787FDE1CF20E030
:1045D00030E0A901C701B6010E94B467312C212C3B
:1045E00087FF09C06DE2CE010E94B5041C01F7FAF5
:1045F000F094F7F8F09410E060E070E080E09FE362
:10460000711641F020E030E040E251E40E948669FA
:104610001F5FF6CFA70196010E9422692B013C0182
:104620000E94F3694B015C012AE0BC01A401CE01A8
:10463000A6DE7C01E20CF31C112399F1C501B40143
:104640000E94B8679B01AC01C301B2010E942169BD
:104650004B015C016EE2CE010E94B504E80EF91E2A
:104660001150F8F020E030E040E251E4C501B4011F
:104670000E9419682B013C010E94F3694B01CE0195
:10468000C9DEE80EF91EB40190E080E00E94B86730
:104690009B01AC01C301B2010E9421694B015C0185
:1046A000DFCFC701DF91CF911F91FF90EF90DF9097
:1046B000CF90BF90AF909F908F907F906F905F90C2
:1046C0004F903F902F9008956BE17BE049CECF93C0
:1046D000DF93AB01BC012AE08BE495E150DEEC01F5
:1046E0008BE495E1F1DF8C0F9D1FDF91CF91089551
:1046F000CF92DF92EF92FF920F931F939091AD10A4
:104700009470882379F08091AD1084608093AD100F
:10471000992309F447C01F910F91FF90EF90DF900C
:10472000CF9008958091AD108B7F8093AD10992329
:1047300091F30E949F07C0901212D0901312E09044
:104740001412F09015120091A4101091A510209150
:10475000A6103091A710C01AD10AE20AF30AC60EB9
:10476000D71EE81EF91EC0921212D0921312E092C8
:104770001412F09215126093A4107093A5108093F8
:10478000A6109093A71069E172E08BE495E10E9476
:104790009D05C701B6011F910F91FF90EF90DF902B
:1047A000CF9095CF0E949F076093A4107093A5109F
:1047B0008093A6109093A710AECF809146028330CD
:1047C00021F499DB91E0892793CF08950E949F07F8
:1047D0006093F6117093F7118093F8119093F9118B
:1047E0006093F2117093F3118093F4119093F5118B
:1047F0008091ED118093E01180E0D0DA80E078CFF5
:104800000F931F93CF93DF93EC0104DE8C01CE0155
:104810005BDF800F911FDF91CF911F910F91089562
:104820000F931F93CF93DF93EC01F9DD8C01CE0141
:104830004BDF800F911FDF91CF911F910F91089552
:10484000CF93DF93BC018BE495E12BDEEC018BE48D
:1048500095E13ADF8C0F9D1FDF91CF910895CF93A3
:10486000C82FE3EDF3E090E080E020812C132DC011
:1048700060914302809343022AE0289FF001299F20
:10488000F00D1124ED52FC4F858180934202068089
:10489000F781E02D309711F089E0199566EC72E010
:1048A0008BE495E10E949D05609143028BE495E1C4
:1048B000B6DD61EC72E08BE495E10E949D056091AC
:1048C00042028BE495E1CF91ABCF01963A968530C9
:1048D000910559F660ED72E08BE495E10E949D052B
:1048E0006C2F8BE495E10E94B5048BE495E1CF91A8
:1048F000EBCE9AE1899FF0011124E15DFB4F8481A9
:10490000AECF893049F480917C1681508093CB10D2
:1049100088E0809342020895833051F48091CB1057
:10492000863020F48F5F8093CB10089580E0FBCF1A
:10493000823041F48091CB10882311F08150F3CF65
:1049400086E0F1CF843011F480E389CF0895CF93CE
:10495000DF938930B9F480914602843031F485E0E8
:1049600080934202DF91CF910895C0914202D0E03E
:10497000CE010E946F1A8111F5CF61E0CE010E9435
:10498000851AEECF833029F48091420261E090E0F5
:10499000F6CF823021F48091420260E0F8CF84307B
:1049A00009F786E5DF91CF915ACF80E358CF0F9377
:1049B0001F93CF93DF93EC01D3DC8C01CE0184DE17
:1049C000800F911FDF91CF911F910F9108950F9349
:1049D0001F93CF93DF93EC010E949D058C01CE01C4
:1049E00073DE800F911FDF91CF911F910F9108957A
:1049F000CF93DF931F92CDB7DEB763E073E08BE414
:104A000095E1E5DF41E0BE016F5F7F4F82E0C3DAF1
:104A100039813074398320917B164AE0822F642FCC
:104A20000E94366A982F880F890F880F820F809313
:104A30008B1220917A16822F0E94366A982F880F47
:104A4000890F880F820F80938C122091791633235F
:104A500009F45EC081E02D3008F480E080937D167B
:104A60002D3020F084EF820F8093791630917916E3
:104A7000832F6AE00E94366A982F880F890F880F6B
:104A8000830F2D3008F042C080938D1280918D12DB
:104A9000806480938D1220917C163AE0822F632FE0
:104AA0000E94366A982F880F890F880F820F809393
:104AB0008E1220917816822F0E94366A982F880FC6
:104AC000890F880F820F80938F1220917716822F83
:104AD0000E94366A982F880F890F880F820F809363
:104AE000901220917516205D822F0E94366A982FB1
:104AF000880F890F880F820F8093911267E080E002
:104B00000E9401150F90DF91CF9108958062BCCF74
:104B1000822F0E94366A982F880F890F880F820F84
:104B2000B8CFCF92DF92EF92FF92CF93C82FF09041
:104B30004302E0904202863051F0109233111092FD
:104B400034111092351110923611109232118AE000
:104B5000F89EF0011124ED52FC4F0680F781E02D04
:104B6000309711F08C2F1995809143028F1105C059
:104B7000809142028E1509F44BC06DEB72E08BE41C
:104B800095E10E949D056C2F8BE495E148DC68EB74
:104B900072E08BE495E10E949D05609143028BE4F5
:104BA00095E13DDC64EB72E08BE495E10E949D05AC
:104BB000609142028BE495E132DC6EEA72E08BE4B4
:104BC00095E10E949D05C0903011D09031110D2CBF
:104BD000000CEE08FF082AE0B701A601F7FE0DC0A1
:104BE0006DE28BE495E10E94B50444275527BA0194
:104BF0004C195D096E097F092AE08BE495E1BFDB62
:104C00008BE495E1CF91FF90EF90DF90CF905CCD5A
:104C1000CF91FF90EF90DF90CF900895CF93DF93E7
:104C20008091331190913411A0913511B0913611CA
:104C30000196A11DB11D8093331190933411A0935F
:104C40003511B09336118091411290914212892B07
:104C5000A1F08091331190913411A0913511B09150
:104C6000361181319742A105B10520F01092421210
:104C700010924112DF91CF91089580910C170E94FC
:104C80007106EC0180910B170E94710690910A1732
:104C90009F70CC0FDD1FC82B24E0929FC001112410
:104CA0008C599D4FC80FD92FD11D888180930A1729
:104CB0008073803109F056C080913011909131118C
:104CC000019690933111809330111092321161E06E
:104CD00083E027DF82E20E947106EC0180913311AC
:104CE00090913411A0913511B09136112091C310DB
:104CF0003091C410C217D30709F445C01092331184
:104D00001092341110923511109236111092C21077
:104D10001092321160E087E0209709F445C060E00E
:104D200084E0C130D10509F43FC0D093C410C093D2
:104D3000C3108091331190913411A0913511B0912D
:104D4000361189389341A105B10508F493CF8091BC
:104D5000321181118FCF60E086E0E3DE81E0809345
:104D6000321188CF803209F0B5CF80913011909107
:104D700031110197909331118093301110923211BB
:104D80006FEF82E0A6CF2091C2102111CECFC130AB
:104D9000D10559F6893B9B40A105B10530F281E070
:104DA0008093C21060E088E0BCDEBFCF6115710562
:104DB00009F0D6CA90E080E00895CF92DF92EF929A
:104DC000FF920F931F93CF93DF936B012AE1829F92
:104DD000C0011124FC01E15DFB4F7F01672B11F441
:104DE000C480D580F60100811181040F111D47FD9B
:104DF0001A95F70166817781808591850E94F36914
:104E0000EB01F70162857385848595850E94F369BE
:104E10000C171D07C8F06017710708F0E8016EE174
:104E20007BE08BE495E1C2DFBE018BE495E1E8DC39
:104E3000F601D183C083DF91CF911F910F91FF9035
:104E4000EF90DF90CF900895EB01E9CFFF920F93A1
:104E50001F93CF93DF93EB01F42E9AE1899F80019A
:104E60001124015D1B4F209719F4F801C481D581ED
:104E700069EF72E08BE495E10E949D056091CE1090
:104E80007091CF108BE495E1C5DA6FED7BE08BE498
:104E900095E18CDFA801110F660B770B2AE08BE4FC
:104EA00095E16DDA6FED7BE08BE495E17FDF688162
:104EB00070E08BE495E1F5DA69E47BE08BE495E161
:104EC00075DFFF2021F0888191E089278883888120
:104ED00090E0DF91CF911F910F91FF90B1CCEF92B5
:104EE000FF921F93CF93DF93182FE090CE10F09096
:104EF000CF108AE18E9DE0018F9DD00D1124C15D00
:104F0000DB4F193091F51092CD101092CC108A8998
:104F10009B89892B21F165E27BE08BE495E146DFFB
:104F20006091CE107091CF108BE495E173DA6FED44
:104F30007BE08BE495E13ADF6C817D81072E000CEC
:104F4000880B990BC4DB6C817D81EA89FB8940E089
:104F50008091CE1019959093CD108093CC10DF9155
:104F6000CF911F91FF90EF9008958EEF810F8230C7
:104F700000F588899989892B91F360EF72E08BE4C1
:104F800095E10E949D05B7018BE495E139DCE88944
:104F9000F9894FEF133009F441E06091CC10709122
:104FA000CD108091CE10DF91CF911F91FF90EF90A7
:104FB0001994143009F069C065EE72E08BE495E154
:104FC0000E949D05B7018BE495E11ADC8A899B89D3
:104FD000892B09F439C08091CC109091CD10892B88
:104FE00099F16AE27BE08BE495E1E0DE6091CE101E
:104FF0007091CF108BE495E10DDA6FED7BE08BE4DF
:1050000095E1D4DE4091CC105091CD10052E000CCE
:10501000660B770B2AE08BE495E1B1D96FED7BE06D
:105020008BE495E1C3DE6C817D81072E000C880B3B
:10503000990B4DDB6091CC107091CD10EA89FB8902
:1050400041E08091CE1019951092CD101092CC10A5
:105050008C899D89892B51F06FE27BE08BE495E18F
:10506000A6DCEC89FD898091CE10199566E37BE082
:105070008BE495E19CDC8A8181FD0BC086E5DF91A4
:10508000CF911F91FF90EF90EACB163009F067CFD8
:10509000F2CF87E5F4CFCF93DF93E09143029AE01C
:1050A000E99FF0011124ED52FC4F2181328195815D
:1050B000909342024091CE105091CF104E33510543
:1050C00020F01092CF101092CE10C1E5DAE121301D
:1050D000310511F0CFE5DAE18930B9F48091CE10D5
:1050E0009091CF10FE01199581110CC0AE0161E0C5
:1050F0008091CE109091CF100E94BE1A9093CF1045
:105100008093CE10DF91CF910895AE0161E083309E
:1051100019F08230C9F460E08091CE109091CF10E8
:105120000E94BE1A9093CF108093CE106DE37BE067
:105130008BE495E13BDE6091CE107091CF108BE453
:1051400095E1DF91CF915CCB843019F58091CE1041
:105150009091CF102AE1289FD001299FB00D1124F2
:10516000A15DBB4F5096ED91FC91519712962C91F9
:1051700023FF08C0309731F241E070E060E0DF913A
:10518000CF91199485E4EF2B09F4BCCFDF91CF9137
:1051900066CB863009F0B6CF80E3F8CFCF92DF92AE
:1051A000EF92FF920F931F93CF93DF9300D000D025
:1051B000CDB7DEB7182F0E949F076B017C010091CD
:1051C0004602802F8B7F4091F6115091F71160912C
:1051D000F8117091F911813009F09DC080910E1283
:1051E00090910F12A0911012B0911112841B950B87
:1051F000A60BB70B8C0D9D1DAE1DBF1D80930E120F
:1052000090930F12A0931012B0931112D701C60100
:10521000841B950BA60BB70B89839A83AB83BC8346
:10522000802F90E09E838D83CE0101960E941F0403
:1052300010934602C092F611D092F711E092F81145
:10524000F092F9118091ED118093E011C092F2116A
:10525000D092F311E092F411F092F5118091FE11C9
:105260009091FF11A0910012B09101128093DC1176
:105270009093DD11A093DE11B093DF1186E0189FAB
:10528000F0011124EB5FFB4F0280F381E02D30979A
:1052900011F0802F199567E47BE08BE495E186DDC2
:1052A000E091460286E0E89FF0011124EB5FFB4F9E
:1052B00061818BE495E10E94B5046CE47BE08BE4B2
:1052C00095E174DD40910E1250910F126091101211
:1052D000709111122AE08BE495E151D862E57BE0F0
:1052E0008BE495E163DD60910A1270910B1280915D
:1052F0000C1290910D12EBD926960FB6F894DEBFE2
:105300000FBECDBFDF91CF911F910F91FF90EF9016
:10531000DF90CF9008958230C9F480910A12909165
:105320000B12A0910C12B0910D12841B950BA60BC1
:10533000B70B8C0D9D1DAE1DBF1D80930A1290935F
:105340000B12A0930C12B0930D1260CF01115ECF1F
:105350008091061290910712A0910812B091091243
:10536000841B950BA60BB70B8C0D9D1DAE1DBF1D91
:105370008093061290930712A0930812B09309121B
:1053800045CF90914602811103C0933029F406CF96
:10539000933011F083E0FBCF0895CF93DF939AE130
:1053A000899FF0011124E15DFB4F8481863038F044
:1053B0006FE57BE0CA01DF91CF910C94BA6CEA01F2
:1053C0000E94A31F6BE57BE0882311F068E57BE07A
:1053D000CE01F1CFEF92FF920F931F93CF93DF9304
:1053E0008B01E090CE10F090CF108AE18E9DE0010D
:1053F0008F9DD00D1124C15DDB4F68817981D8016B
:105400008D919C910E94BA6C64E67BE0F8018281E8
:1054100093810E94BA6CEE85FF85309789F0D801A0
:1054200012964D915C914E5F5F4F20E070E060E01E
:105430008E2DDF91CF911F910F91FF90EF901994D6
:10544000DF91CF911F910F91FF90EF900895CF932F
:10545000DF93EB0167E67BE0888199810E94BA6C5B
:1054600062E77BE08A819B81DF91CF910C94BA6CDB
:105470000C940D6BAF92BF92CF92DF92EF92FF929E
:105480000F931F93CF93DF9300D01F92CDB7DEB75A
:105490008C016B017A018091DB148333E9F45B01A9
:1054A0006801C40ED51EC016D106A9F10E94D0070E
:1054B0008FE00E947B08812F0E947B08802F0E9432
:1054C0007B080F5F1F4F80E00E947B08F5018193EE
:1054D0005F010E94C607E7CF843369F50E94D007B9
:1054E00019830A838F2D8F778B83EC8264E070E0C1
:1054F000CE0101960E94AC07A70170E060E0C601F2
:105500000E948C6CE114F10421F0B701C6010E94E5
:10551000AC070E94C607C7010F900F900F900F9025
:10552000DF91CF911F910F91FF90EF90DF90CF907F
:10553000BF90AF9008950E94D0070F3F110509F06A
:1055400030F419820A831B8263E070E0D1CF17FD2B
:105550000BC019820A8333E0169507953A95E1F757
:10556000007E08600B83F0CFC80126E096958795F2
:105570002A95E1F7807E19830A830115104C18F4EF
:1055800080618B83E1CF8861FCCFCF93DF931F9243
:10559000CDB7DEB72091DC1430E0322F2227260F62
:1055A000371F90E0982F882741E050E0BE016F5FE1
:1055B0007F4F820F931F5EDF89810F90DF91CF9124
:1055C0000895CF93C82F462F61E070E00E946E09C6
:1055D00061E070E08C2FD9DF8111FACFCF9108956F
:1055E000CF93C82F80E591E00E94A40968E070E0A5
:1055F0008C2FCF91E6CFCF93C82F80E591E00E940A
:10560000A40960E170E08C2FCF91DBCFCF93DF93C3
:10561000EC01888D883018F4EEDF88E0888FDF9108
:10562000CF91089563E070E0B0CFCF93C82F80E5AD
:1056300091E00E94A4098C2FCF91F4CFEF92FF92BA
:105640000F931F93CF93DF937C018091DB14D4E001
:10565000833309F0D8E00BE712E1C0E0F8012191B3
:1056600031918F01F701848195812817390729F03D
:10567000CF5FDC13F3CF80E005C08C2FD6DF843101
:10568000B9F781E0DF91CF911F910F91FF90EF90DB
:105690000895CF93DF93EC018C858830C8F4C5DF83
:1056A000843189F0882379F0883169F021E08C31E8
:1056B00059F4E881F9810084F185E02DCE01199536
:1056C00021E0892B09F420E0822FDF91CF9108950A
:1056D00080E0FBCFCF92DF92EF92FF92CF93DF93E8
:1056E000EC018C85883058F47BDF0E949F076B01AA
:1056F0007C018C859ADF811109C088E08C87DF915D
:10570000CF91FF90EF90DF90CF90089561E070E02F
:1057100080E090E00E946E070E949F07AB01BC01F1
:105720004C195D096E097F098D859E85B0E0A0E06A
:10573000481759076A077B07E0F28C855CDFDDCFED
:10574000CF93FC01C08D80E591E00E94A40960E246
:1057500070E08C2F36DF62E070E08C2F16DF84FD66
:1057600015C062E070E08C2F10DF83FF0AC048E1B3
:1057700062E070E08C2F0E946E0980E090E0CF9193
:10578000089580E591E00E94A409E5CF40E162E040
:1057900070E08C2F0E946E0981E0F0CFCF93DF93F1
:1057A0001F92CDB7DEB741E050E0BE016F5F7F4F83
:1057B00090E080E05FDE89810F90DF91CF910895C6
:1057C000CF93DF93C4E1D0E0E9DF882361F061E0AB
:1057D00070E080E090E00E946E072197A9F780E0DA
:1057E000DF91CF91089581E0FBCFCF92DF92EF92CE
:1057F000FF921F93CF93DF93CDB7DEB76A970FB6B3
:10580000F894DEBF0FBECDBFFA012DEA3AE03A832D
:1058100029835FEF5B835C835D831E8238872F83E0
:10582000C280D380E480F580C986DA86EB86FC8668
:10583000FB0142815381648175814F87588B698B4D
:105840007A8B3C8B2B8BFC0182819381A481B58167
:105850008D8B9E8BAF8BB88F8091DD14811165C0CD
:1058600060E372E080E090E00E946E070E941714EF
:10587000E3E5F7E0E491F0E0EE0FFF1FEB5EF84F99
:10588000859194919093DA148093D914E9E9F7E023
:10589000E491E093D81461E08AE00E94F6060E9449
:1058A000C60780E591E00E94A40984E38093DB149D
:1058B00080E80E94220984DF882309F46AC088E016
:1058C0000E9422096BDF883009F063C080E10E94EA
:1058D000220964DF803109F05CC080E00E94220967
:1058E0005DDF182F811155C041E050E0BE01675EB9
:1058F0007F4F8FE190E0BEDD898D833009F049C094
:1059000080E48093DC1442E06EE170E0812F0E941D
:105910006E0942E06FE170E0812F0E946E091F5F07
:10592000183089F781E08093DD1480E591E00E94D2
:10593000A40946E050E06AE472E089E090E00E9449
:10594000820844E050E0BE016B5E7F4F8FE090E044
:105950000E94820844E050E0BE01675F7F4F81E013
:1059600090E00E94820844E050E0BE016D5F7F4FEE
:1059700085E090E00E9482088F859889A989BA897C
:105980008093081690930916A0930A16B0930B16ED
:1059900060C087E38093DB1480E80E94220910DF57
:1059A000882309F188E00E942209F8DE8830D9F4C2
:1059B00080E10E942209F2DE182F8031A1F480E0FC
:1059C0000E942209EBDE81110EC041E050E0BE01D1
:1059D000675E7F4F89E390E04DDD898D843019F457
:1059E0001093DC149FCF83E38093DB1480E80E9444
:1059F0002209E6DE882359F180E10E942209CEDEE9
:105A0000803129F582E10E942209C8DE8231F9F451
:105A100080E00E942209C2DE811119C084E08093D7
:105A2000DC1415E51A8F41E050E0BE01665E7F4F41
:105A30008BE190E00E948208198F41E050E0BE01A6
:105A4000675E7F4F8AE190E00E9482086BCF1092E0
:105A5000DB146A960FB6F894DEBF0FBECDBFDF91A0
:105A6000CF911F91FF90EF90DF90CF9008951F93FB
:105A7000CF93DF931F92CDB7DEB7182F80E591E06B
:105A80000E94A409812F0E94DB0727E0129FF001EA
:105A90001124ED5BFD4E22813381377041E050E0EF
:105AA000BE016F5F7F4F820F931FE4DC89810F90EF
:105AB000DF91CF911F910895FC01808D883038F4DB
:105AC000218D328D232B19F0D2DF90E008958FEFD6
:105AD0009FEF0895CF93DF93FC012485283028F0B1
